:020000040800F2
:1000000000000220751003083160010881620108B8
:10001000996201089D620108A162010800000000C8
:10002000000000000000000000000000A5620108C0
:10003000A962010800000000AD6201081560010816
:10004000E1100308E1100308E1100308E1100308C0
:10005000E1100308E1100308E1100308E1100308B0
:10006000E1100308E1100308E1100308E1100308A0
:10007000E1100308E1100308156401085D6401083C
:10008000E1100308CD630108E1100308E110030843
:10009000E1100308E1100308E1100308E110030870
:1000A000E1100308E1100308E1100308E110030860
:1000B000D9620108E1100308E11003082D65010869
:1000C000256501083D65010835650108E110030853
:1000D000E1100308ED640108F5640108FD640108FE
:1000E000E1100308E11003081DD60108B162010800
:1000F000E1100308E1100308E1100308A5640108FA
:10010000E1100308E110030861630108E11003082E
:10011000056501081D650108E1100308E1100308E9
:10012000E1100308E1100308E1100308E1100308DF
:10013000E1100308E1100308E1100308E1100308CF
:10014000E1100308E1100308E110030825D60108B7
:10015000E1100308E110030885630108E1100308BA
:100160004D65010845650108E1100308E110030829
:10017000E1100308E1100308E1100308E11003088F
:08018000E1100308E11003087F
:1080000081F0004102E000BF83F0004330B54FEA49
:1080100041044FEA430594EA050F08BF90EA020FB6
:108020001FBF54EA000C55EA020C7FEA645C7FEA49
:10803000655C00F0E2804FEA5454D4EB5555B8BF6C
:108040006D420CDD2C4480EA020281EA030382EADD
:10805000000083EA010180EA020281EA0303362D6F
:1080600088BF30BD11F0004F4FEA01314FF4801C42
:108070004CEA113102D0404261EB410113F0004F54
:108080004FEA03334CEA133302D0524263EB43030B
:1080900094EA050F00F0A780A4F10104D5F1200EA9
:1080A0000DDB02FA0EFC22FA05F2801841F1000104
:1080B00003FA0EF2801843FA05F359410EE0A5F1D8
:1080C00020050EF1200E012A03FA0EFC28BF4CF009
:1080D000020C43FA05F3C01851EBE37101F00045BF
:1080E00007D54FF0000EDCF1000C7EEB00006EEBCC
:1080F0000101B1F5801F1BD3B1F5001F0CD3490856
:108100005FEA30004FEA3C0C04F101044FEA4452AC
:1081100012F5800F80F09A80BCF1004F08BF5FEA33
:10812000500C50F1000041EB045141EA050130BD13
:108130005FEA4C0C404141EB0101013C28BFB1F525
:10814000801FE9D291F0000F04BF01460020B1FA70
:1081500081F308BF2033A3F10B03B3F120020CDA43
:108160000C3208DD02F1140CC2F10C0201FA0CF021
:1081700021FA02F10CE002F11402D8BFC2F1200C86
:1081800001FA02F120FA0CFCDCBF41EA0C0190403C
:10819000E41AA2BF01EB0451294330BD6FEA040485
:1081A0001F3C1CDA0C340EDC04F11404C4F1200270
:1081B00020FA04F001FA02F340EA030021FA04F382
:1081C00045EA030130BDC4F10C04C4F1200220FAD9
:1081D00002F001FA04F340EA0300294630BD21FA17
:1081E00004F0294630BD94F0000F83F4801306BFDD
:1081F00081F480110134013D4EE77FEA645C18BFD1
:108200007FEA655C29D094EA050F08BF90EA020F67
:1082100005D054EA000C04BF1946104630BD91EA5F
:10822000030F1EBF0021002030BD5FEA545C05D162
:108230004000494128BF41F0004130BD14F58004A1
:108240003CBF01F5801130BD01F0004545F0FE4115
:1082500041F470014FF0000030BD7FEA645C1ABF4A
:10826000194610467FEA655C1CBF0B46024650EA81
:10827000013406BF52EA033591EA030F41F40021AD
:1082800030BD00BF90F0000F04BF0021704730B533
:108290004FF4806404F132044FF000054FF0000108
:1082A00050E700BF90F0000F04BF0021704730B5C9
:1082B0004FF4806404F1320410F0004548BF40429E
:1082C0004FF000013EE700BF42004FEAE2014FEAF3
:1082D00031014FEA02701FBF12F07F4393F07F4FCE
:1082E00081F06051704732F07F4208BF704793F0D1
:1082F0007F4F04BF41F40021704730B54FF46074E4
:1083000001F0004521F000411CE700BF50EA0102E6
:1083100008BF704730B54FF000050AE050EA01028F
:1083200008BF704730B511F0004502D5404261EBFF
:1083300041014FF4806404F132045FEA915C3FF440
:10834000D8AE4FF003025FEADC0C18BF03325FEADD
:10835000DC0C18BF033202EBDC02C2F1200300FA8E
:1083600003FC20FA02F001FA03FE40EA0E0021FAB3
:1083700002F11444BDE600BF70B54FF0FF0C4CF4A1
:10838000E06C1CEA11541DBF1CEA135594EA0C0F53
:1083900095EA0C0F00F0DEF82C4481EA030621EA8E
:1083A0004C5123EA4C5350EA013518BF52EA0335C9
:1083B00041F4801143F4801338D0A0FB02CE4FF07B
:1083C0000005E1FB02E506F00042E0FB03E54FF0AB
:1083D0000006E1FB03569CF0000F18BF4EF0010EA3
:1083E000A4F1FF04B6F5007F64F5407404D25FEA9F
:1083F0004E0E6D4146EB060642EAC62141EA555152
:108400004FEAC52040EA5E504FEACE2EB4F1FD0C93
:1084100088BFBCF5E06F1ED8BEF1004F08BF5FEA11
:10842000500E50F1000041EB045170BD06F00046C3
:1084300046EA010140EA020081EA0301B4EB5C0470
:10844000C2BFD4EB0C0541EA045170BD41F4801168
:108450004FF0000E013C00F3AB8014F1360FDEBF8D
:10846000002001F0004170BDC4F10004203C35DA69
:108470000C341BDC04F11404C4F1200500FA05F3EC
:1084800020FA04F001FA05F240EA020001F000428D
:1084900021F0004110EBD37021FA04F642EB060103
:1084A0005EEA430E08BF20EAD37070BDC4F10C042D
:1084B000C4F1200500FA04F320FA05F001FA04F2F1
:1084C00040EA020001F0004110EBD37041F10001DD
:1084D0005EEA430E08BF20EAD37070BDC4F12005E8
:1084E00000FA05F24EEA020E20FA04F301FA05F250
:1084F00043EA020321FA04F001F0004121FA04F2F8
:1085000020EA020000EBD3705EEA430E08BF20EAC7
:10851000D37070BD94F0000F0FD101F00046400001
:1085200041EB010111F4801F08BF013CF7D041EA83
:10853000060195F0000F18BF704703F00046520087
:1085400043EB030313F4801F08BF013DF7D043EA58
:108550000603704794EA0C0F0CEA135518BF95EA0E
:108560000C0F0CD050EA410618BF52EA4306D1D195
:1085700081EA030101F000414FF0000070BD50EAB4
:10858000410606BF1046194652EA430619D094EA3E
:108590000C0F02D150EA013613D195EA0C0F05D128
:1085A00052EA03361CBF104619460AD181EA03017C
:1085B00001F0004141F0FE4141F470014FF0000034
:1085C00070BD41F0FE4141F4780170BD70B54FF0CF
:1085D000FF0C4CF4E06C1CEA11541DBF1CEA13554F
:1085E00094EA0C0F95EA0C0F00F0A7F8A4EB050431
:1085F00081EA030E52EA03354FEA013100F0888028
:108600004FEA03334FF0805545EA131343EA1263F0
:108610004FEA022245EA111545EA10654FEA0026A5
:108620000EF000419D4208BF964244F1FD0404F55E
:10863000407402D25B084FEA3202B61A65EB0305BA
:108640005B084FEA32024FF480104FF4002CB6EB77
:10865000020E75EB030E22BFB61A754640EA0C00F7
:108660005B084FEA3202B6EB020E75EB030E22BF37
:10867000B61A754640EA5C005B084FEA3202B6EB78
:10868000020E75EB030E22BFB61A754640EA9C0037
:108690005B084FEA3202B6EB020E75EB030E22BF07
:1086A000B61A754640EADC0055EA060E18D04FEAC5
:1086B000051545EA16754FEA06164FEAC30343EA65
:1086C00052734FEAC2025FEA1C1CC0D111F4801F32
:1086D0000BD141EA00014FF000004FF0004CB6E72B
:1086E00011F4801F04BF01430020B4F1FD0C88BFCA
:1086F000BCF5E06F3FF6AFAEB5EB030C04BFB6EBD5
:10870000020C5FEA500C50F1000041EB045170BDC7
:108710000EF0004E4EEA113114EB5C04C2BFD4EBF4
:108720000C0541EA045170BD41F480114FF0000E78
:10873000013C90E645EA060E8DE60CEA135594EAF4
:108740000C0F08BF95EA0C0F3FF43BAF94EA0C0FF7
:108750000AD150EA01347FF434AF95EA0C0F7FF46C
:1087600025AF104619462CE795EA0C0F06D152EAC0
:1087700003353FF4FDAE1046194622E750EA4106A4
:1087800018BF52EA43067FF4C5AE50EA41047FF4B5
:108790000DAF52EA43057FF4EBAE12E74FF0FF3C1A
:1087A00006E000BF4FF0010C02E000BF4FF0010CEB
:1087B0004DF804CD4FEA410C7FEA6C5C4FEA430C64
:1087C00018BF7FEA6C5C1BD001B050EA410C0CBFB3
:1087D00052EA430C91EA030F02BF90EA020F002015
:1087E000704710F1000F91EA030F58BF994208BF7C
:1087F00090422CBFD8176FEAE37040F00100704739
:108800004FEA410C7FEA6C5C02D150EA013C07D18F
:108810004FEA430C7FEA6C5CD6D152EA033CD3D0DA
:108820005DF8040B704700BF8446104662468C46D4
:108830001946634600E000BF01B5FFF7B7FF002807
:1088400048BF10F1000F01BD4DF808EDFFF7F4FF30
:108850000CBF012000205DF808FB00BF4DF808EDBB
:10886000FFF7EAFF34BF012000205DF808FB00BFDE
:108870004DF808EDFFF7E0FF94BF012000205DF800
:1088800008FB00BF4DF808EDFFF7CEFF94BF0120B5
:1088900000205DF808FB00BF4DF808EDFFF7C4FFAE
:1088A00034BF012000205DF808FB00BF4FEA410CF7
:1088B0007FEA6C5C02D150EA013C0AD14FEA430CDA
:1088C0007FEA6C5C02D152EA033C02D14FF0000017
:1088D00070474FF0010070474FEA410212F5001255
:1088E00015D211D56FF47873B3EB625212D94FEAF7
:1088F000C12343F0004343EA505311F0004F23FAE1
:1089000002F018BF404270474FF00000704750EA35
:10891000013005D111F0004008BF6FF000407047F2
:108920004FF00000704700BF4FEA4102B2F1E04350
:1089300024BFB3F5001CDCF1FE5C0DD901F0004C46
:108940004FEAC0024CEA5070B2F1004F40EB830096
:1089500008BF20F00100704711F0804F21D113F1C2
:108960003872BCBF01F00040704741F480114FEAFB
:108970005252C2F11802C2F1200C10FA0CF320FA84
:1089800002F018BF40F001004FEAC1234FEAD323A1
:1089900003FA0CFC40EA0C0023FA02F34FEA43030B
:1089A000CCE77FEA625307D150EA01331EBF4FF094
:1089B000FE4040F44000704701F0004040F0FE40AF
:1089C00040F40000704700BF80F0004002E000BFAC
:1089D00081F0004142001FBF5FEA410392EA030FAA
:1089E0007FEA226C7FEA236C6AD04FEA1262D2EBF4
:1089F0001363C1BFD218414048404140B8BF5B42F9
:108A0000192B88BF704710F0004F40F4000020F091
:108A10007F4018BF404211F0004F41F4000121F0A7
:108A20007F4118BF494292EA030F3FD0A2F10102F1
:108A300041FA03FC10EB0C00C3F1200301FA03F12F
:108A400000F0004302D5494260EB4000B0F5000F52
:108A500013D3B0F1807F06D340084FEA310102F111
:108A60000102FE2A51D2B1F1004F40EBC25008BFC3
:108A700020F0010040EA03007047490040EB00008D
:108A8000013A28BFB0F5000FEDD2B0FA80FCACF18E
:108A9000080CB2EB0C0200FA0CF0AABF00EBC250BB
:108AA00052421843BCBFD0401843704792F0000FA9
:108AB00081F4000106BF80F400000132013BB5E7FC
:108AC0004FEA41037FEA226C18BF7FEA236C21D072
:108AD00092EA030F04D092F0000F08BF08467047D7
:108AE00090EA010F1CBF0020704712F07F4F04D1A5
:108AF000400028BF40F00040704712F100723CBFB8
:108B000000F50000704700F0004343F0FE4040F4E1
:108B1000000070477FEA226216BF08467FEA23639F
:108B20000146420206BF5FEA412390EA010F40F48A
:108B3000800070474FF0000304E000BF10F00043D6
:108B400048BF40425FEA000C08BF704743F09643BD
:108B500001464FF000001CE050EA010208BF7047D8
:108B60004FF000030AE000BF50EA010208BF70475F
:108B700011F0004302D5404261EB41015FEA010C74
:108B800002BF84460146002043F0B64308BFA3F16C
:108B90008053A3F50003BCFA8CF2083AA3EBC2534E
:108BA00010DB01FA02FC634400FA02FCC2F120026D
:108BB000BCF1004F20FA02F243EB020008BF20F0A4
:108BC0000100704702F1200201FA02FCC2F120020A
:108BD00050EA4C0021FA02F243EB020008BF20EAFF
:108BE000DC70704753B94AB9002908BF00281CBF80
:108BF0004FF0FF314FF0FF3000F00CB8ADF1080C32
:108C00006DE904CE2CF046FBDDF804E0DDE902233B
:108C100004B07047704700BF844641EA000313F078
:108C200003036DD1403A41D351F8043B40F8043B73
:108C300051F8043B40F8043B51F8043B40F8043B36
:108C400051F8043B40F8043B51F8043B40F8043B26
:108C500051F8043B40F8043B51F8043B40F8043B16
:108C600051F8043B40F8043B51F8043B40F8043B06
:108C700051F8043B40F8043B51F8043B40F8043BF6
:108C800051F8043B40F8043B51F8043B40F8043BE6
:108C900051F8043B40F8043B51F8043B40F8043BD6
:108CA00051F8043B40F8043B403ABDD2303211D376
:108CB00051F8043B40F8043B51F8043B40F8043BB6
:108CC00051F8043B40F8043B51F8043B40F8043BA6
:108CD000103AEDD20C3205D351F8043B40F8043B76
:108CE000043AF9D2043208D0D2071CBF11F8013B74
:108CF00000F8013B01D30B8803806046704700BF3A
:108D0000082A13D38B078DD010F003038AD0C3F148
:108D10000403D21ADB071CBF11F8013B00F8013B2A
:108D200080D331F8023B20F8023B7BE7043AD9D3E9
:108D3000013A11F8013B00F8013BF9D20B780370BE
:108D40004B7843708B78837060467047000000005A
:108D50000000000000000000000000000000000013
:108D60000000000000000000000000000000000003
:108D700000000000000000000000000000000000F3
:108D800030B490F800F020F007016FF0000C10F004
:108D9000070491F820F040F048804FF000046FF095
:108DA0000700D1E9002391F840F000F1080082FAB1
:108DB0004CF2A4FA8CF283FA4CF3A2FA8CF34BBB7C
:108DC000D1E9022382FA4CF200F10800A4FA8CF2F5
:108DD00083FA4CF3A2FA8CF3E3B9D1E9042382FAC3
:108DE0004CF200F10800A4FA8CF283FA4CF3A2FAD8
:108DF0008CF37BB9D1E9062301F1200182FA4CF210
:108E000000F10800A4FA8CF283FA4CF3A2FA8CF376
:108E1000002BC6D0002A04BF04301A4612BAB2FA98
:108E200082F200EBD20030BC7047D1E9002304F09D
:108E30000305C4F100004FEAC50514F0040F91F8D2
:108E400040F00CFA05F562EA05021CBF63EA05036F
:108E500062464FF00004AAE708B5064B1A783AB903
:108E6000054A1AB10548AFF30080024B01221A707F
:108E700008BD00BFC004002000000000AC90030843
:108E800008B5034B1BB103490348AFF3008008BD8D
:108E900000000000C4040020AC9003080F4BDFF872
:108EA0004CC010B553F820400D4BDCF800204FF4B7
:108EB0002E7E0EFB00300B4BD0F82CE0D0F8B40225
:108EC0009950134408495C60C3F808E0D8600B6807
:108ED00010320133CCF800200B6010BDF87C00206C
:108EE000803B002000000010600500206805002085
:108EF00000B5244B24491B782448DFF8A4E0244A19
:108F00008B71A3F1020CBCF1020FDFF898C0C1F81D
:108F100000C0DFF894C00388DCF800C012681D4868
:108F2000CB81C1F818C0DEF800300068C8614FF08E
:108F3000020CA1F804C04FF4E02CC1F808C0C1E94C
:108F400004238CBF4FF0020C4FF0140C124B81F82D
:108F50000CC00A4615204FF0100E4FF0000C42F8DE
:108F6000200F81F807E003F1540081F80DC053F899
:108F7000041B42F8041F8342F9D1084B0022C3E9C5
:108F8000002200BDEC000020000000104805002079
:108F90006405002054050020F4040020780000102F
:108FA000600500205452414358050020774B1A7841
:108FB000F2B170B5764C217882B0D1B1754B1E7884
:108FC0001D4608F0ABF9FFF7C7FD734A9FED737AB2
:108FD000117807EE900A67EE877A0129FCEEE77AAE
:108FE00022D011F0FD0F60D02178297002B070BD41
:108FF000704708F093F9684A92F800C0BCF1010F7D
:1090000005D0634B634D1978297002B070BD019291
:10901000FFF7A2FD9FED617A5E4D5F4A07EE900A71
:1090200067EE877AFCEEE77A5D49097805292ED14B
:109030005749097859B35B48D0F800C040F6F7703B
:10904000844524D8584A17EE904A1068A042CCD8DC
:1090500017EE901A0120FFF721FF17EE901A00205B
:10906000FFF71CFF17EE901A0220FFF717FF474B80
:10907000474A1B7811784D484B4AC0ED007A023BB5
:10908000022B8CBF0223142323441360ADE7474B0C
:109090000192C3ED007AFFF72BFF3D4A1178019A48
:1090A00029700223137002B070BD1EB93C4B1B78AF
:1090B000052B02D0364B197897E73A4B3C491E6096
:1090C00080230B603B499FED3C6A0B603B493C4B66
:1090D00091ED007ADFED3B6AC3ED007A27EE067A68
:1090E000324B3149C3ED007AB4EEE67A0123F1EE5A
:1090F00010FAC1ED007A137044DCDFED337AF4EE40
:10910000C77AF1EE10FAD8BFF0EE477AFCEEE77AB4
:1091100017EE900A2D4B2E4A2E491080D3F8EC0200
:109120000860D3F8FC024860D3F800038860D3F8E5
:10913000C802C860D3F8CC020861D3F8D4024861F1
:10914000D3F8D802886103F2A4500068C86103F222
:10915000B4500068086203F5B7600068486203F520
:10916000B0600068886203F284500068C86203F24D
:109170008C5003F5B26300681B6808634B63FFF70C
:10918000B7FE97E74FF6FF70C4E700BFEC00002082
:10919000FC2F002051050020530500206F12833A58
:1091A000387D0020600500204C050020540500207B
:1091B000680500206405002000007A44700000204B
:1091C0005805002000FF7F4700000000803B002082
:1091D00048050020F4040020154B1B7813B1154BF3
:1091E0001A6802B9704700B583B008F097F8FFF726
:1091F000B3FC9FED117A114A07EE900A67EE877A69
:10920000FCEEE77AC2ED007AFFF772FE094B0C48DC
:109210001B680C49009108331B0103600A4A502166
:10922000012012F02FFA094B187003B000BD00BFE7
:10923000EC000020600500206F12833A54050020E6
:109240005C0500200000001000000C085005002004
:109250000B48027910B400230A4C802163F34102C9
:1092600021600271084C094A094821601370094CB9
:1092700009490A4A037023600B6010BC13607047F1
:109280003C7D002064050020680500205305002077
:10929000F004002060050020E4040020E804002021
:1092A000704700BF364A37483749D0F800C008B584
:1092B000137943F002031371344A0020012308603C
:1092C0001370BCF1000F1AD0314B324A03F1800009
:1092D00052F8041F43F8041B8342F9D12E4B2F4848
:1092E0002F49304A006808604FF0010E83F800E013
:1092F0004FEA0C1313602C4B80221A6008BD244ADD
:109300002A48802112F072F9214A294910688842BE
:109310004FF001030FD0802200211D482CF006FAE7
:10932000204A1D481E490023136003700B601E4B2A
:1093300080221A6008BD92F804C0BCF1020FEAD185
:10934000D1791029E7D1516940F6F77001F1FF3E5C
:109350008645E0D8107A40F002001072154A16488F
:1093600013700D4A0E4B82F800C018600D4A0801B8
:1093700001F10803114910601B010B60BBE700BF3E
:109380003C7D002060050020E0040020F004002067
:1093900070050020FCFFFF0F52050020640500202F
:1093A000EC040020E8040020E404002000000C0885
:1093B000545241435005002080000C085C050020F9
:1093C000054B187838B1054B054A1B6812681343E2
:1093D00014BF012000207047F0040020E4040020A6
:1093E000E8040020474B1B78002B7FD02DE9F04F7D
:1093F000454B464F1D683A68A7B08246002D5CD0A9
:109400000DF1180942484946002301E0802B76D02F
:10941000013304780C709D4200F1010001F101015B
:10942000F4D12C46ED1A384B1D60002A4CD0CDF8F3
:109430000490DFF8F080374D374EA1441FE0D3F899
:1094400004E0D3F808C056F800B0DB68C9F80C3067
:10945000C9F800B0C9F804E0C9F808C0012900F152
:10946000100004F11004A2F1100203D1B0F5803F06
:1094700028BF80203A60286009F1100912B37F2CC0
:1094800020D898F800102868022900EB0603D6D1EE
:1094900002AA102112F0AAF8DDE90202DDE9043186
:1094A000C9F80000C9F80C10C9F80420C9F8083040
:1094B00028683A6898F80010D0E7A2B12C460DF160
:1094C0001809B4E7DDF80490E2B2144C4B46216869
:1094D00050461DF0BFFF0C4B22681B6839680132F3
:1094E0000B43226003D027B0BDE8F08F70470C49D2
:1094F000044A13700A7963F341020A71F3E71C46C8
:1095000090E700BFF0040020E4040020E8040020FD
:1095100070050020EC04002000000010E004002092
:109520003C7D002052050020144B154A53F8203092
:109530001268934220D2F7EE007A30EE270AF6EE58
:10954000007A20EE270ADFED0F7A0F4A20EE270A75
:109550003421BDEEC00A01FB032210EE103A1BB20B
:10956000B3F5FA6FA8BF4FF4FA63D269B3F57A7F07
:10957000B8BF4FF47A731360704700BF045E0308EE
:10958000000000200000FA444C7C0308124B134AF0
:1095900053F82030126893421CD2F7EE007A30EE76
:1095A000270ADFED0F7A0F4A20EE270A3421BDEE9D
:1095B000C00A01FB032210EE103A40F698011BB2DC
:1095C0008B42A8BF0B46D269B3F5487FB8BF4FF4B2
:1095D00048731360704700BF045E0308000000205A
:1095E00000007A444C7C03080F4B104A53F820309B
:1095F0001268934216D2DFED0E7A0E4A20EE270A49
:109600003421BDEEC00A01FB032210EE103A40F2F5
:10961000E7311BB28B42A8BF0B46D269012BB8BF02
:1096200001231360704700BF045E030800000020A0
:1096300000007A444C7C0308704700BF2DE9F84FC6
:109640002DED028BC24EDFF86093F27899F800306E
:10965000900740F1AC80002B00F0A980BD4ABE4BC2
:10966000D2ED007A93EDAE7A27EE877AFEEE006AAD
:10967000B4EEE67AF1EE10FAB6EE006A07D4B4EE74
:10968000C67AF1EE10FA00F3D281B1EE476A93ED9B
:10969000007AB24B27EE877AFEEE006AB4EEE67AE5
:1096A000F1EE10FA83ED006A00F1BB81B6EE006ABC
:1096B000B4EEC67AF1EE10FA01DCF1EE476AA84A80
:1096C000A84B92ED006AC3ED006A67EE867ABEEEA3
:1096D000007AF4EEC77AF1EE10FA08D4B6EE007A0A
:1096E000F4EEC77AF1EE10FAD8BFB0EE677A9E4B6F
:1096F0009E4900221A6081ED007A03F02BFD9C4BFD
:109700001B78002B00F0B080DFF8A082994CD8F8CD
:10971000003000202060002B00F08C819FED968AA5
:10972000DFF88CA2954F964D9AED001A07EB800357
:1097300005EB800BD3ED000A9BED000A01F090F9D8
:1097400099F800308BED000A002B40F054818D4BCE
:1097500020681B78052B00F03381022B00F030814C
:1097600005EB800383ED008AB0EE480A8300F278AF
:10977000120700F1DD80844B1B6898472068834BFB
:10978000D8F8002003EB800305EB8001D3ED007ACD
:1097900091ED007A013077EE877A9042C3ED007A3E
:1097A0002060C1D37A4A13680133136060E0794ABC
:1097B00092ED007AFEEE007AB4EEE77AF1EE10FA5E
:1097C00039D4F6EE007AB4EEE77AF1EE10FAC8BFBB
:1097D000B0EE677A6049614AD1EDAD6A82ED007AF8
:1097E000FEEE007AF4EEE76AF1EE10FA08D4F6EE37
:1097F000007AF4EEE76AF1EE10FAD8BFF0EE667A7E
:10980000654A584992ED007AC1ED007A13F0FD0FD8
:10981000FEEE007AB4EEE77A10D0F1EE10FA00F125
:109820000381F6EE006AB4EEE67AF1EE10FA11DC8E
:10983000F1EE477A0EE0B0EE677ACBE7F1EE10FA80
:1098400008D4F6EE007AB4EEE77AF1EE10FAD8BF5B
:10985000F0EE477A454BC3ED007A03F07BFC444BB6
:109860001B78002B7FF450AF424CDFF84081434F10
:1098700003F0BAFE03F034FCD8F800302360092B63
:1098800046D83F4D9FED458ADFF82881DFF828A1B3
:10989000DFF8289198ED001A07EB830205EB830BA4
:1098A000D2ED000A9BED000A01F0DAF88BED000A18
:1098B000F378226813F0080F02F1010325D15AF85A
:1098C0002200374905EB820CD9F800204FF0340E06
:1098D00090420EFB0011B7EE007A40F6980014D2C9
:1098E000DCED007AC96977EE877A67EE887AFDEE5B
:1098F000E77A17EE902A12B28242A8BF0246B2F56A
:10990000487FB8BF4FF448720A60092B2360C1D961
:109910001A4E244D0A2323600FCE0FC50FCE0FC55C
:1099200096E8030085E80300BDEC028BBDE8F88FE4
:10993000164A1344D3ED007A77EE807A0130C3EDF6
:10994000007AD8F8003020609842FFF4EDAE29E7A5
:109950003C7D002010000020803B00200C060020F1
:10996000F040002008060020000600200406002029
:10997000C0060020F0050020000000006406002062
:109980003C060020387D0020F405002090060020D1
:109990008C060020EC400020A443002000007A4404
:1099A0004C7C030814060020B18E00200400002027
:1099B000BC060020B8060020045E0308000000205A
:1099C0001D4B93ED000A05EB8003D3ED007AF4EE16
:1099D000C07AF1EE10FA4FEA800308D4B7EE000A1D
:1099E000F4EEC07AF1EE10FAD8BFB0EE670AEA18CA
:1099F00082ED000ABBE60FF00DF80346206843B184
:109A0000F378190709D405EB800393ED000A83006E
:109A1000EDE7B0EE480A8300E9E79FED080A83000E
:109A2000E5E7F6EE006A4AE6F6EE007A12E7B0EEF7
:109A3000666A2CE6024FB5E6AC3800200000000054
:109A4000640600202DE9F047B249DFF81483CB7893
:109A5000B148B24F98F800203D68DFF8089323F032
:109A6000200382B0CB70AE4BAE491B78C35CAE48CE
:109A7000A2F10104B4FA84F4AB4200784FEA541422
:109A800028BF2B460B6089F80040002840F0BA80C0
:109A9000022A00F0698107EE903AB8EEE77AF7EE15
:109AA000006AC6EE877AA149A14E02EB8202033317
:109AB00056F8220033F003039A46C1ED007A9D491F
:109AC000086006EB82013ED0DFED9B7A9B4C9C4EFA
:109AD000C4ED007AC6ED007A002D40F07B81C4ED24
:109AE000017AC6ED017A3B680025022BA560B560BE
:109AF00000F21D830023E360F360BAF1040F20D06D
:109B00003B680025062B2561356100F241836561C4
:109B10007561BAF1060F14D93B680025082BA561C1
:109B2000B56100F2FE83E561F561BAF1080F08D96D
:109B30003B680025042B2562356200F2448465628F
:109B4000756299F80040002C40F0D4807D4C3A6852
:109B500054F82A309342C0F0CC830AF1010354F840
:109B6000232039688A42C0F0FE83BAF1080F0AF157
:109B7000020300F0BF8054F8232039688A42C0F005
:109B800009840AF1030354F8232039688A42C0F09B
:109B90003C840AF1040354F8232039688A42C0F057
:109BA0004D840AF1050354F8232039688A42C0F035
:109BB0005E84BAF1040F00F09D803B68082B00F230
:109BC00087843B68042B40F295805C4E5C4D5E4878
:109BD0004FF07C5440F2DC5345F2E472A821346229
:109BE0002C6213F00FF83B68052B40F28380574836
:109BF000746240F2DC5345F2E472A8216C6213F007
:109C000001F877E04B4A52494C4C1160002B00F0B0
:109C1000F8804FEA83084A4E0193424600212046CD
:109C20002BF084FD0021424630462BF07FFD019B46
:109C30000A2B5CD004EB0801B0444FF07C52092B96
:109C40000A60C8F8002003F1010150D004EB810044
:109C500006EB8101082B0A60026003F1020146D085
:109C600004EB810006EB8101072B0A60026003F11F
:109C700003013CD004EB810006EB81014FF07C52E4
:109C8000062B0A60026003F1040130D004EB81006E
:109C900006EB8101052B0A60026003F1050126D065
:109CA00004EB810006EB8101042B0A60026003F1E2
:109CB00006011CD004EB810006EB8101032B0A6036
:109CC000026003F1070112D004EB810006EB810171
:109CD000022B0A60026003F1080108D004EB810046
:109CE00006EB810102600A600BB962627262002DAC
:109CF00040F09C802822002116482BF017FD164BBF
:109D000001241C6004F084F9144B1C7002B0BDE8FF
:109D1000F08700BF3C7D00202C5E0308000000207F
:109D2000F500002004000020B18E00201006002065
:109D3000DC5D0308F4050020000000003C06002064
:109D400064060020045E03081C7D0308507D0308A0
:109D50008D950008900600208C060020C00600208B
:109D60000C000020C10600202B4B2C4C2C4E2D4A01
:109D700008604FF07C581A60C4F80080C6F8008074
:109D8000002D40F03D82C4F80480C6F804804FF0F6
:109D90007C53A360B3604FF07C53E360F3604FF0FB
:109DA0007C53236133614FF07C53636173614FF0E7
:109DB0007C53A361B3614FF07C53E361F3613B6873
:109DC0004FF07C55042B2562356200F202826562F9
:109DD00075628FE7D1E9022313488988CDED017AB6
:109DE00012F010FF3B68DDED017A012BC4ED017A22
:109DF000C6ED017A00F28D81C4ED027AC6ED027AD9
:109E000078E6074E4FF07C5222606260A2603260BA
:109E10007260B26003212DE7F40500203C060020AB
:109E200064060020399600084C7C0308D04E4FF49D
:109E30007A7345F2E472A821304612F0E3FE3D68E1
:109E4000012D67D94FF47A7345F2E472A82106F127
:109E5000340012F0D7FE3D68022D5BD94FF47A73BF
:109E600045F2E472A82106F1680012F0CBFE3D68CD
:109E7000032D4FD94FF47A7345F2E472A82106F10D
:109E80009C0012F0BFFE3D68062D2DD94FF47A7369
:109E900045F2E472A82106F59C7012F0B3FE3D680D
:109EA000072D21D94FF47A7345F2E472A82106F503
:109EB000B67012F0A7FE3D68082D15D94FF47A73DD
:109EC00045F2E472A82106F5D07012F09BFE3D68C1
:109ED000092D09D94FF47A7345F2E472A82106F5E9
:109EE000EA7012F08FFE3D68042D13D9A1484FF49B
:109EF0007A7345F2E472A82112F084FE3D68052DC4
:109F000008D99D484FF47A7345F2E472A82112F003
:109F100079FE3D68002D3FF4EDAE94ED007ADFED63
:109F2000976AF169D4ED017AB7EE006A37EE067AE6
:109F300040F6980227EE267ABDEEC77A17EE103A61
:109F40001BB29342A8BF1346B3F5487FB8BF4FF486
:109F50004873012D0B603FF4CDAE77EE867A316DFC
:109F600094ED027A67EEA67AFDEEE77A17EE903A64
:109F70001BB29342A8BF1346B3F5487FB8BF4FF456
:109F80004873022D0B603FF4B5AE37EE067AD6F873
:109F90008410D4ED037A27EE267ABDEEC77A17EE49
:109FA000103A1BB29342A8BF1346B3F5487FB8BF1F
:109FB0004FF44873032D0B603FF49CAE77EE867A26
:109FC000D6F8B81094ED047A67EEA67AFDEEE77A3B
:109FD00017EE903A1BB29342A8BF1346B3F5487FE1
:109FE000B8BF4FF44873062D0B6040F28F8237EEF6
:109FF000067AD6F85411D4ED057A27EE267ABDEE0E
:10A00000C77A17EE103A1BB29342A8BF1346B3F5B6
:10A01000487FB8BF4FF44873072D0B6043D077EEED
:10A02000867AD6F8881194ED067A67EEA67AFDEE68
:10A03000E77A17EE903A1BB29342A8BF1346B3F5E6
:10A04000487FB8BF4FF44873082D0B602BD037EE14
:10A05000067AD6F8BC11D4ED077A27EE267ABDEE43
:10A06000C77A17EE103A1BB29342A8BF1346B3F556
:10A07000487FB8BF4FF44873092D0B6013D077EEBB
:10A08000867A67EEA67AFDEEE77A17EE903A1BB273
:10A090009342A8BF1346B3F5487FD6F8F021B8BF66
:10A0A0004FF448731360D4ED087ADFED346AD6F8C4
:10A0B000EC1094ED097AB7EE006A77EE867A40F6F6
:10A0C000980267EEA67AFDEEE77A17EE903A1BB299
:10A0D0009342A8BF1346B3F5487FB8BF4FF4487307
:10A0E000052D0B603FF406AE77EE067AD6F8201108
:10A0F00067EEA67AFDEEE77A17EE903A1BB293422E
:10A10000A8BF1346B3F5487FB8BF4FF448730B6040
:10A11000F0E598F800101A4B1A4801EB810103EBA7
:10A120008101D1E90223898812F06CFDDBE498F803
:10A130000010134B144801EB810103EB8101D1E9BD
:10A140000223898812F05EFD3B68E560032BF56011
:10A150007FF6D3AC98F80010094B0C4801EB810155
:10A1600003EB8101D1E90223898812F04BFDC4E49D
:10A170004C7C03081C7D0308507D030800007A44D2
:10A18000DC5D0308807C0308B47C0308E87C0308DA
:10A1900098F80010C14BC24801EB810103EB81012B
:10A1A000D1E90223898812F02DFD3B686561072BF8
:10A1B00075617FF6AEAC98F80010B84BB94801EB6A
:10A1C000810103EB8101D1E90223898812F01AFD94
:10A1D0009FE440F2DC53B44845F2E472A82112F047
:10A1E00011FD3B686562052B75627FF683ADAF4854
:10A1F00040F2DC5345F2E472A82112F003FD79E548
:10A2000040F2DC53AA4845F2E472A82112F0FAFCAD
:10A210003B68C4F80480012BC6F804807FF6B7AD14
:10A2200040F2DC53A34845F2E472A82112F0EAFCA4
:10A230003B68C4F80880022BC6F808807FF6ABADF7
:10A2400040F2DC539C4845F2E472A82112F0DAFC9B
:10A250003B68C4F80C80032BC6F80C807FF69FADDA
:10A2600040F2DC53954845F2E472A82112F0CAFC92
:10A270003B68C4F81080062BC6F810807FF693ADBB
:10A2800040F2DC53864845F2E472A82112F0BAFC91
:10A290003B68C4F81480072BC6F814807FF687AD9E
:10A2A00040F2DC537F4845F2E472A82112F0AAFC88
:10A2B0003B68C4F81880082BC6F818807FF67BAD81
:10A2C00040F2DC537E4845F2E472A82112F09AFC79
:10A2D0003B68C4F81C80092BC6F81C807FF66FAD64
:10A2E000784840F2DC5345F2E472A82112F08AFC6F
:10A2F00065E57549754A6E4801EB8A0102EB8A02F1
:10A30000342505FB03004FF07C530B601360A8213C
:10A3100040F2DC5345F2E47212F074FC0AF10103DE
:10A320001DE498F800105D4B654801EB810103EBDB
:10A330008101D1E90223898812F064FC3B68E56160
:10A34000092BF5617FF6F1AB98F80010534B5D488F
:10A3500001EB810103EB8101D1E90223898812F02D
:10A3600051FCFFF7E2BB5949574D05EB830501EB63
:10A3700083034F49342000FB02104FF07C522A60C7
:10A380001A60A82140F2DC5345F2E47212F03AFC64
:10A39000FFF7EBBB4D494C4D05EB830501EB830308
:10A3A0004349342000FB02104FF07C521A602A60AF
:10A3B00040F2DC5345F2E472A82112F023FC0AF1CA
:10A3C0000303FFF7E0BB98F80010344B364801EB6D
:10A3D000810103EB8101D1E90223898812F012FC8B
:10A3E0003B686562052B75627FF6ABAB98F8001091
:10A3F0002A4B2E4801EB810103EB8101D1E90223B5
:10A40000898812F0FFFBFFF79CBB30492E4D05EB0E
:10A41000830501EB83032649342000FB02104FF033
:10A420007C521A602A6040F2DC5345F2E472A821A3
:10A4300012F0E8FB0AF10403FFF7ADBB2349224DFC
:10A4400005EB830501EB83031949342000FB02105F
:10A450004FF07C521A602A6040F2DC5345F2E472FD
:10A46000A82112F0CFFB0AF10503FFF79CBB1749A7
:10A47000154C04EB830401EB83030D49342000FBEE
:10A4800002104FF07C5222601A60A82140F2DC5387
:10A4900045F2E47212F0B6FBFFF78BBBDC5D0308FC
:10A4A000847D0308B87D03081C7D0308507D0308E4
:10A4B0004C7C0308807C0308B47C0308E87C030818
:10A4C000EC7D0308207E03083C0600206406002083
:10A4D000104E114D11484FF07C5440F2DC5345F2C0
:10A4E000E472A821B461AC6112F08CFB3B68092BCB
:10A4F0007FF667AB0A48F46140F2DC5345F2E47240
:10A50000A821EC6112F07EFBFFF75BBB042D3FF44A
:10A51000F1ABC8E53C06002064060020EC7D030892
:10A52000207E03082DE9F0411E4C054606F0F6FE9C
:10A53000D4E9022390429941F8D30121284600F042
:10A54000C7FD01210746284600F00EFE9F21384630
:10A5500000F0F2FE144E154B3446187006F1050853
:10A560000021384600F0E8FE04F8010B4445F7D11D
:10A570002846002100F0F8FD33783279B1787478FC
:10A58000F0781F2B08BF282C42EA01020CBF0123E0
:10A590000023012808BF002A0CBF0120002018401A
:10A5A000BDE8F081782F002018000020C3060020AD
:10A5B00070B5194C054606F0B1FED4E9022390426D
:10A5C0009941F8D30021284600F082FD012106467A
:10A5D000284600F0C9FD8021304600F0ADFE0F4C4A
:10A5E00000212070304600F0A7FE00212070304688
:10A5F00000F0A2FE00212070304600F09DFE0021F8
:10A600002070284600F0B0FDBDE8704023220023F2
:10A61000012006F0C3BF00BF782F0020C306002032
:10A62000F8B52A4C054606F079FED4E9022390429B
:10A630009941F8D30021284600F04AFD0121074640
:10A64000284600F091FD3D21384600F075FE204E71
:10A650002A213070384600F06FFE80213070384675
:10A6600000F06AFEA6213070384600F065FE002139
:10A670003070284600F078FD48F6B802002301202B
:10A6800006F08CFF06F04AFED4E90223904299417D
:10A69000F8D30121284600F01BFD0121044628467D
:10A6A00000F062FDD721204600F046FE0021307008
:10A6B000204600F041FE074C00212070284600F0A3
:10A6C00053FD207800F00100F8BD00BF782F002076
:10A6D000C3060020C206002010B50320FFF768FF64
:10A6E0000320FFF71FFF04460320FFF799FF2040D8
:10A6F000C0B210BD00000000534B1B68002B40F09F
:10A7000094802DE9F04F514B514E1F68514D85B04B
:10A710008DED030A0024504B06FB0737380CFDF77C
:10A72000C1FD47A3D3E90023FDF750FF02460B46C6
:10A73000FDF76CFC22462B46FDF766FC464B06FBFC
:10A7400007378246380C8B46FDF7ACFD3CA3D3E9B6
:10A750000023FDF73BFF02460B46FDF757FC224660
:10A760002B46FDF751FC5246CDE900015B465046B1
:10A770005946FDF701FE80468946DDE900010246A3
:10A780000B46FDF7F9FD02460B4640464946FDF7EC
:10A790003DFC22462B4680468946FEF773F800288A
:10A7A000B9D10022002340464946FEF74DF8002863
:10A7B000B1D1264B294C1F6049EC108B26F0E4FCEC
:10A7C000002251EC100B4FF04043FDF7D5FD4246FF
:10A7D0004B46FDF7FBFE41EC100B26F09DFD57ECC0
:10A7E000106BDDE9000132463B46FDF7C5FDFEF783
:10A7F0009BF8154D2060012432463B462C605046A4
:10A800005946FDF7B9FD044603980D46FDF75CFD7A
:10A8100002460B4620462946FDF7AEFDFEF784F8BA
:10A8200000EE100A05B0BDE8F08F0C4AD2ED007AB8
:10A83000054A002320EE270A13607047AFF300801B
:10A840000000E0FFFFFFEF41D006002024000020C1
:10A850000D6619000000F03F5FF36E3CCC0600204F
:10A8600010B5044606F01EFE0023C4E90003C4E947
:10A87000023310BD10B5C160044606F013FE20601F
:10A8800010BD00BF10B5044606F00CFE2368C01AC8
:10A89000B0F57A7F8ABF0020B4F90C00E06010BDEB
:10A8A00003787BB343781C4A0133A2FB031202F402
:10A8B000FF7101EB52029B1A00EB8302437082EDA1
:10A8C000010A90ED017A90ED020AD0ED037AB4EE20
:10A8D000C07AF1EE10FA0EDDB4EEE77AF1EE10FA7E
:10A8E000D8BFF0EE477AB4EEE70AF1EE10FAD8BF1F
:10A8F000B0EE670A7047F0EE406AB0EE470AB0EE7D
:10A90000667AE9E7012380ED030A80ED020A80ED13
:10A91000010A0380704700BFABAAAAAAD0F80021A1
:10A92000012A34D090F80C31A3B93AB100F1800378
:10A9300003EB8201A3EC010A8B42FBD107EE902AC4
:10A94000F8EEE77A012367EE807A80F80C31C0EDEB
:10A95000447A7047D0F80831D0ED447A00EB830197
:10A96000D1ED206A81ED200A07EE102A77EEE67A13
:10A97000B8EE477A77EE807A013387EE870AB3FB29
:10A98000F2F102FB1133C0F80831C0ED447A704790
:10A990000B46202B10B51146044613D8013BB3FAE1
:10A9A00083F3C3F1200301209840042200F1FF3C0F
:10A9B0009A40C4E9400C2046FEF72EF9002384F8A3
:10A9C0000C3110BD80224FF01F0C2020F1E700BF9A
:10A9D00090F80C31D0F80011FBB100B5D0E941E29C
:10A9E000531C03EA0E0300EB820282ED200A9FED66
:10A9F000130AC0F8083179B1024600EB810CB2ECC1
:10AA0000017A00EB8301D1ED207A01339445A7EE62
:10AA1000270A0EEA0303F2D100BD39B100F1800329
:10AA200003EB8101A3EC010A9942FBD1002201232F
:10AA3000C0F8082180F80C31704700BF000000000A
:10AA4000DFED067A20EE277AF7EE006AC6EE877A07
:10AA500077EEA07A80EEA70A704700BFDB0FC940EF
:10AA600070EEC00AA0EE810A704700BFDFED0C7ADD
:10AA70009FED0C7A20EE270AF7EE006AC6EE807A88
:10AA80000023037027EE877AC6EEA75A86EE876A00
:10AA9000C0ED017AC0ED025A80ED036A704700BF35
:10AAA000DB0FC940F304353F0378F0EE407AD3B1B1
:10AAB000D0ED076A90ED027A30EE666A20EE877A72
:10AAC000F0EE667AE6EE077A90ED080A90ED037AEA
:10AAD000C0ED077A60EE870A37EEC07AA7EE200A4B
:10AAE00080ED080A704701230370C0ED077A80EDFE
:10AAF000080A7047B5EEC00AF1EE10FA02DC9FEDCD
:10AB0000050A7047F1EEC07AB7EE007A87EE270AA1
:10AB1000704700BF00000000254B00B5D3ED007A60
:10AB2000F4EE417AF1EE10FA87B0F0EE406A13D1FC
:10AB3000204A214B92ED000AD3ED007A20EEA77A4D
:10AB400060EE800AA6EE807AE6EEE70A80ED007AF3
:10AB5000C1ED000A07B000BD8DED040AB0EE410A58
:10AB6000CDE90201CDED050A8DED001A26F082FD3A
:10AB70009DED001A104A8DED011AF0EE407AB0EE0C
:10AB8000410AC2ED007ACDED007A26F033FD094A84
:10AB90009DED011A064BDDED050ADDED046ADDEDE4
:10ABA000007A83ED001ADDE9020182ED000AC5E7B3
:10ABB000C806002020000020C4060020012AB0F9A9
:10ABC00000C0B1F900300FD0032A08D0022A04D106
:10ABD000CCF1000CA0F800C05B420B8070475B42D8
:10ABE000038063460B8070470380CCF100030B8029
:10ABF000704700BFB5EEC00AF1EE10FA08D5DFEDE0
:10AC00000C7A30EE270AB5EEC00AF1EE10FAF8D44D
:10AC1000DFED077AB4EEE70AF1EE10FA06DB30EE6C
:10AC2000670AB4EEE70AF1EE10FAF8DA704700BFEF
:10AC3000DB0FC940DFED107AB4EEE70AF1EE10FA4F
:10AC400009D59FED0E7A30EE070AB4EEE70AF1EE71
:10AC500010FAF8D47047DFED0A7AB4EEE70AF1EEA5
:10AC600010FA08DB9FED057A30EE470AB4EEE70AEA
:10AC7000F1EE10FAF8DA7047DB0F49C0DB0FC9407C
:10AC8000DB0F4940B4EEE00AF1EE10FA02DD30EEDF
:10AC9000600A7047F1EE607AF4EEC07AF1EE10FAD5
:10ACA00002DD30EE200A70479FED010A704700BFB9
:10ACB0000000000021EE211A70EE417AF4EEE07AF5
:10ACC000F1EE10FA0ADC31EE001AF4EEC10AF1EEF0
:10ACD00010FAD4BFF0EE607AF0EE417AB0EE670A77
:10ACE000704700BF60EE810AF1EE607AF4EEC07A40
:10ACF000F1EE10FA02DD30EE800A7047F4EEC00A81
:10AD0000F1EE10FA02D530EE600A70479FED010AAD
:10AD1000704700BF000000002DED108B8CB04FF08D
:10AD2000000CCDE909CCCDE906CCCDE903CCDFEDB3
:10AD3000E74A8DED010ACDF82CC0CDF820C0CDF842
:10AD400014C0002900F0A98101EB410CF0EE641A57
:10AD5000B0EE644AB0EE643AF0EE642AF0EE643A83
:10AD6000B0EE642AB0EE641AF0EE640AB0EE640A43
:10AD7000B0EE648AF0EE648AF0EE64AAB0EE64BAD3
:10AD8000F0EE64BA00EB8C0CB0EE649AF0EE649ACC
:10AD9000B0EE64AAD0ED006A90ED017AD0ED027AAF
:10ADA00026EEA65A67EE075A27EEA76A0C308445AE
:10ADB000E6EE85AAA7EE250AA7EE862AA6EE87AAC2
:10ADC000E6EEA79AA7EE279AE5EE073AE5EE272AE0
:10ADD000A6EEA53AA5EEA74AE6EE861AE7EE064AE3
:10ADE0007BEEA6BA3BEE05BA78EE878A38EE258A66
:10ADF00070EEA70A31EE061ACCD18DED078A8DEDE3
:10AE00000A0ACDED03BA8DED06BACDED09AACDED56
:10AE1000048ACDED050A8DED081A8DED0B2AB0EEF2
:10AE20006B0AB0EE688AB0EE4BDAF0EE41CA07EE7C
:10AE3000901AF8EE677AF7EE006A86EEA77A00209D
:10AE4000DDED07DADDED058ADDED0A7A27EE000A91
:10AE500027EE088A27EE044A27EE0DDA67EE2DDA90
:10AE6000A7EE224A67EE288A20EE002A68EE082A1A
:10AE700067EE2CCA3DEE8DCA67EE03BA72EE226A07
:10AE800028EEA83A3CEE2CCA67EE233A76EE836AA7
:10AE9000E7EE273AB8EE00EAF0EE4C7AE6EE8E7A6C
:10AEA000E7EE243A77EEA67AF6EE00EA76EEE77A57
:10AEB0002CEE2EFAF0EE675AE6EE8E5ADDED096AB8
:10AEC000E7EE26BADDED0B6AE7EE21BAA6EE874A79
:10AED00067EEAE7A27EE0AAA67EE299A27EE099A5C
:10AEE000BAEE007A23EE87BA75EE8C5A6BEE87BA0B
:10AEF0003FEE275A24EE077AF2EE00FA8DED007A43
:10AF000065EEAF5AB0EE687AF0EE486AB0EE406A8D
:10AF1000F3EE001AF0EE453A31E066EE884A26EE8E
:10AF2000062AE6EE004A66EEA62AE8EE874AF0EE2A
:10AF30004C5AE4EE8E5A27EE073A72EE227A25EE4C
:10AF4000055A77EE837AA4EE045A75EEA75AA3EE5B
:10AF5000A35A77EEE57AF0EE675AE4EE8E5ADDED0D
:10AF6000014A67EEAE7A75EE8C5AB4EEE45AF1EE11
:10AF700010FA7FEE273A65EEAF5A40F3848029EE4F
:10AF8000874A73EE8D0AAAEE264A013080B2E8EEB7
:10AF9000C70AF1EE42AA7AEEE7AAE6EEC80AAAEEDE
:10AFA000804A69EE074A33EEAD1AEAEE064AA6EE8B
:10AFB000401AA0EE864AF1EE620A70EEE70AA8EEA9
:10AFC000C71AE0EE884A29EE265A7CEEA33AA9EE8B
:10AFD000865AE6EE403AE1EE264AB1EE431A71EEA9
:10AFE000677AE6EEC83AA8EEA75AF0EE6B0AE4EEEE
:10AFF000210AB0EE4B1A36EE064AA4EEA11A76EEFE
:10B00000A64A77EE077AA4EE402AA3EE875AE4EE2A
:10B01000C82AA8EEE73ADDED007A32EE0D2AE5EE19
:10B02000217A72EEAD2AB0EE655AA2EE215AF0EE08
:10B03000654A33EE2C3AE2EEA14AE3EE215AB5EE30
:10B04000405AF1EE10FAF5EE404A08BFB7EE005A4A
:10B05000F1EE10FAF5EE405A08BFF7EE004AF1EEB5
:10B0600010FA08BFF7EE005A80EE854A904281EE52
:10B07000245AC7EEA53A36EE446A76EEC56A37EE34
:10B08000637AFFF44AAF83ED006AC3ED016A83ED92
:10B09000027A0CB0BDEC108B70479DED030A9DED5C
:10B0A000048A9DED06DADDED08CAF0EE641AB0EE12
:10B0B000644AB0EE643AF0EE642AF0EE643AB0EE20
:10B0C000649AF0EE649AB0EE64AAB0E60000000064
:10B0D000204B214A30B500EB400503EB00101F4B1D
:10B0E000C07803EB401302EB85005C68D0E901C334
:10B0F000002918BF63461A4908889BB2984283B05A
:10B1000002D1204603B030BD0B80204600210193C0
:10B1100025F0DCFE2188104A019B12F82500114D14
:10B1200021F03802134323802B88834208D02388E0
:10B13000288060B923F003032380052006F02CF952
:10B140002046012125F0C2FE204603B030BD43F069
:10B150000303F1E708760308485E0308A8760308AE
:10B16000D6060020D406002008B50001094B1A5C61
:10B170003AB10830184429B1BDE80840002111F067
:10B18000B9BA08BD012111F0B5FABDE808400120A7
:10B1900006F002B9087603085C4B10B55C4C1878D1
:10B1A0001D2119F09BF8237813B1A378002B48D107
:10B1B000237C13B1A37C002B4FD194F820301BB11A
:10B1C00094F82230002B53D194F830301BB194F80E
:10B1D0003230002B57D194F840301BB194F84230F4
:10B1E000002B5BD194F850301BB194F85230002BF7
:10B1F0005FD194F860301BB194F86230002B63D1BA
:10B2000094F870301BB194F87230002B67D194F829
:10B2100080301BB194F88230002B6BD194F89030C1
:10B2200013B194F8923003B910BD3A48012111F0DE
:10B2300061FA012006F0B0F8BDE81040642006F085
:10B2400037B9012104F1080011F054FA012006F089
:10B25000A3F8642006F02CF9AAE701212E4811F08A
:10B2600049FA012006F098F8642006F021F9A4E7D5
:10B2700001212A4811F03EFA012006F08DF86420E1
:10B2800006F016F9A0E70121254811F033FA012054
:10B2900006F082F8642006F00BF99CE701212148B2
:10B2A00011F028FA012006F077F8642006F000F982
:10B2B00098E701211C4811F01DFA012006F06CF8F6
:10B2C000642006F0F5F894E70121184811F012FA0D
:10B2D000012006F061F8642006F0EAF890E7012109
:10B2E000134811F007FA012006F056F8642006F022
:10B2F000DFF88CE701210F4811F0FCF9012006F07E
:10B300004BF8642006F0D4F888E700BF7090002066
:10B3100008760308A0760308207603083076030831
:10B3200040760308507603086076030870760308B9
:10B330008076030890760308F8B505460F464FF46B
:10B3400080544FF6FF7603E0013CA4B2B44208D02B
:10B350000221284625F0D4FD0028F5D00CB920465E
:10B36000F8BD3946284625F0BFFD4FF480544FF60E
:10B37000FF7603E0013CA4B2B44207D00121284685
:10B3800025F0BEFD0028F5D0002CE8D0284625F099
:10B39000A7FDC0B2F8BD00BF2DE9F04F85B007464C
:10B3A00003936C4B0191D3F800A09346002800F062
:10B3B0008280694B1B78834200F0C680DFF8A09141
:10B3C000012138464FEA0718FFF782FE19F80830C6
:10B3D000029304462BB108F108004844002111F003
:10B3E00089F94FF480564FF6FF7504E0013EB6B27E
:10B3F000AE4200F08F800221204625F081FD00281A
:10B40000F4D0002E40F0868009EB08035B78042B13
:10B4100056D0BBF1000F18D0039E0197B3444FF6EE
:10B42000FF754FF4805703E0013FBFB2AF422BD00E
:10B430000221204625F064FD0028F5D027BB3846C0
:10B4400006F8010B5E45ECD1019F029B43B108F168
:10B4500008004844012111F04DF9012005F09CFF3E
:10B460003C4B1868504507D03C4B07EB470703EBB4
:10B4700087039A6801329A60A0EB0A00B0FA80F064
:10B48000400905B0BDE8F08F0021204625F02CFDD5
:10B490004FF4805703E0013FBFB2AF4207D0012114
:10B4A000204625F02DFD0028F5D0002FC7D02046DE
:10B4B00025F016FDC4E7019B43F0800301937DE76F
:10B4C0004FF480564FF6FF7503E0013EB6B2AE4230
:10B4D00007D00221204625F013FD0028F5D0002ECC
:10B4E00097D00021204625F0FFFC4FF480564FF600
:10B4F000FF7503E0013EB6B2AE4207D001212046FF
:10B5000025F0FEFC0028F5D0002E82D0204625F044
:10B51000E7FC7EE70199204625F0E6FC4FF48056D3
:10B520004FF6FF7503E0013EB6B2AE4208D00121EE
:10B53000204625F0E5FC0028F5D0002E3FF464AF4E
:10B54000204625F0CDFC5FE7012AB4D941F0C003C5
:10B55000019333E7D8060020F7000020E08E00209A
:10B56000087603082DE9F04FDFF840B1DFF840A17D
:10B5700085B0804602938946DBF8003000930021B5
:10B580001746FFF7A5FD4FEA081304461AF80320F3
:10B59000039301922AB103F108005044002111F0F5
:10B5A000A9F84FF480564FF6FF7503E0013EB6B29E
:10B5B000AE4260D00221204625F0A2FC0028F5D042
:10B5C000002E58D1EFB1029ECDF8088037444FF6D7
:10B5D000FF7516F8019B4FF4805805E008F1FF381D
:10B5E0001FFA88F8A8452CD00221204625F088FCB7
:10B5F0000028F3D0B8F1000F23D1B742E9D1DDF82C
:10B600000880019B43B1039808305044012111F098
:10B6100071F8012005F0C0FEDBF80000009B9842A5
:10B6200007D0214B08EB480803EB88039A680132E6
:10B630009A60009BC01AB0FA80F0400905B0BDE8DE
:10B64000F08F4946204625F04FFC4FF4805905E025
:10B6500009F1FF391FFA89F9A94508D001212046CF
:10B6600025F04EFC0028F3D0B9F1000FC5D02046DC
:10B6700025F036FCC1E74946204625F035FC4FF45D
:10B6800080564FF6FF7503E0013EB6B2AE4207D0DA
:10B690000121204625F034FC0028F5D0002E91D061
:10B6A000204625F01DFC8DE7E08E0020D806002006
:10B6B0000876030810B53D4A3D4B3E49D3ED007A6C
:10B6C00091ED000A3C4B3D4C3D483E4993ED007ADC
:10B6D00090ED006A3C4B3D482DED048B92ED008AC5
:10B6E0003B4A94ED009AD2ED005A3A4AD1ED008AD5
:10B6F000D2ED006A384C3949394A78EE670A38EE9B
:10B70000278A30EE250AD3ED007A364B70EEC70A51
:10B7100038EE478A39EE069A78EEE68A70EEA70A86
:10B7200038EE678A30EE000A78EEA88A39EE099A78
:10B7300084ED008A80ED009AC1ED008A82ED000A56
:10B74000C3ED000A25F048FEDFED277A274CF4EE22
:10B75000E78AF1EE10FA84ED010A24D49FED240A61
:10B76000F4EEC08AF1EE10FAD8BFB0EE680A25F008
:10B7700007FE204B1B78F1EE407A012BC4ED007AD6
:10B7800006D11D4BD3ED007A77EEC07AC4ED007A76
:10B79000F0EE480AB0EE490A25F01EFEBDEC048B1F
:10B7A00084ED020A10BDB0EE670AE0E7B00F00209A
:10B7B000A00F0020AC0F0020940F00209C0F002051
:10B7C000A40F0020980F00208C0F0020840F002071
:10B7D000900F0020A80F0020880F0020800F00206D
:10B7E0007C0F0020780F0020EFFF7FBFE07C00205F
:10B7F000EFFF7F3FB18E002094380020F8B53F4C1A
:10B800003F4F404E404D2DED068B94ED028AF6EEF3
:10B81000009A28EE298AB0EE480A25F0EBFEB0EE39
:10B82000409AB0EE480A25F025FFD4ED018A68EE73
:10B83000A98AB0EE408AB0EE680A25F0DBFEF0EE91
:10B8400040AAB0EE680A25F015FF94ED00AA2F4C2F
:10B850002AEE29AAF0EE408AB0EE4A0A25F0CAFE86
:10B86000F0EE409AB0EE4A0A25F004FF28EE2A5A7C
:10B8700028EE288A20EE456A69EE288A68EE005A8A
:10B88000A8EEA96A29EE2A9A66EE066AE9EE295A16
:10B8900068EE297AE5EEA56AE9EE007A20EE687A8C
:10B8A000B0EE660AA5EE297AA7EEA70A86ED006A31
:10B8B000A7EE070AC5ED007A84ED007AC7ED005ABD
:10B8C000FFF718F9BDEC068B97ED006AD6ED006A1C
:10B8D00095ED007AD4ED007A26EE006A66EE806A75
:10B8E00027EE007A67EE807A87ED006AC6ED006A7F
:10B8F00085ED007AC4ED007AF8BD00BFE07C002041
:10B90000C00F0020BC0F0020B80F0020B40F002093
:10B91000394B3A4AD3ED004ADFF8FCC0384BD2ED40
:10B92000005A93ED002A9CED006A91ED013A354AE8
:10B93000354BD1ED022A74EE866A75EEC27AB7EE07
:10B94000005AB0EE004AF0EE453AE6EEC43A37EE61
:10B95000A77AD2ED006AD1ED007A2C4A27EE037A5D
:10B9600093ED003A2A4BA3EEA77A76EE837AD3EDD5
:10B97000003A284B77EEA77A74EEA34AA7EEA27A94
:10B9800076EE237AB0EE456AA7EEC46AD3ED002ABC
:10B99000D2ED007A80ED007AD1ED011A35EE827A8F
:10B9A00026EE216A91ED002A37EE077A77EEE25A09
:10B9B000A7EE026A75EEA55A91ED027AA5EE876AA6
:10B9C00077EEA27A80ED016A36EEC37A91ED016AD4
:10B9D000D1ED006A77EEA77A37EE077A67EE867ABE
:10B9E000A4EEC45AE7EE267A91ED027AE5EE077AE4
:10B9F000C0ED027A704700BF940F00209C0F00201A
:10BA0000A40F0020980F0020A80F0020900F002006
:10BA1000A00F0020AC0F00208C0F00200A480B491B
:10BA200090ED007A0A4A0B4BD1ED007AD2ED006A14
:10BA300067EEC77A93ED007AE6EE877A77EEA77A1B
:10BA400027EE800A704700BFBC0F0020B40F002013
:10BA5000C00F0020B80F0020094A0A4BD2ED007A2F
:10BA600093ED007A084B77EEC77A93ED007A074B97
:10BA700077EEC77A93ED000A37EE800A704700BF71
:10BA8000B00F0020A00F0020940F00208C0F00208A
:10BA900008B5114B1621187818F020FC0F4A104BEE
:10BAA00052789FED100A520783ED010A83ED000AD8
:10BAB00005D583ED020ABDE80840FFF79FBE23F0DD
:10BAC00021FA074B084A82ED000A83ED020ABDE81D
:10BAD0000840FFF793BE00BF709000203C7D00201F
:10BAE000E07C0020000000008CBD002070B56C4B95
:10BAF0006C4C93ED027AD4ED007AE7EE007A2DEDEE
:10BB0000028BB0EE670A82B0C4ED007AFFF772F8DC
:10BB1000654A664BD2ED007A93ED007A644A654B34
:10BB20006549D3ED006A654B77EE877AB0EE408ABF
:10BB300092ED007A91ED000AD3ED000A84ED008ABF
:10BB400077EEE67A30EE070A5D4C77EEE00A30EEEB
:10BB5000000A25F041FC637A5A4ADB09F0EE407A8C
:10BB600082ED020A1BD1584B584D93ED000A37EE77
:10BB7000C00AFFF73FF8564BD5ED007A83ED000A77
:10BB800030EE670AFFF736F8637A524A23F08003F3
:10BB900082ED000A637202B0BDEC028B70BD637867
:10BBA0005B0771D54C4B494D93ED250A95ED007A15
:10BBB0004A4E30EE070A30EE670AFFF71BF89FED9A
:10BBC000487A20EE078AF6EE007A28EE278AB0EE51
:10BBD000480A25F00FFD8DED010AB0EE480A25F068
:10BBE00049FD404B9DED017AD3ED007A96ED005A68
:10BBF0003D483E49D0ED005A20EE676A67EE877AED
:10BC0000A5EE076AE5EE007A91ED005AC3ED007AE1
:10BC100060EE656A25EE000AE5EE076AA5EE870A82
:10BC2000C1ED006A20EE007A80ED000AA6EE067AE9
:10BC300086ED006AB0EE470AA6EEA60AA7EEA70AAE
:10BC4000FEF758FF28482949264B1E4AD6ED005AD0
:10BC500090ED006AD1ED006A93ED007AD2ED027AA0
:10BC6000194A65EE805A26EE006A66EE806A27EE73
:10BC7000007AC6ED005A92ED000A80ED006AC1ED2F
:10BC8000006A83ED007A72E738EE400AFEF7B2FFF1
:10BC90000D4B0C4A0D4DD2ED027A83ED000A66E79A
:10BCA000F87C00205C0F0020B00F0020A00F0020C7
:10BCB000A40F0020940F00209C0F00208C0F002068
:10BCC0003C7D0020E07C0020DC06002098BD0020A8
:10BCD00090BD002088BD0020E8A80020C00F0020F3
:10BCE0000AD7A33CB40F0020BC0F0020B80F0020DF
:10BCF00062EE026A2DE9F047E1EEA16ADFF808A3DF
:10BD0000A84B9AED007ADFEDA85ADFF8009393ED87
:10BD1000006ADFF8FC82A54BA54CA64EA64FA74DA6
:10BD2000E2EEA26A2DED108BF1EEE6EA82B0F7EEBC
:10BD3000007A99ED008A98ED00AAD4ED00AACDED25
:10BD4000003AEEEEE57A67EE07DA27EE08BAC3EDC1
:10BD500000DA9B4B8DED014A83ED00BA27EE0AEA2B
:10BD6000984BC5ED00EAF0EE408A27EE860A83ED97
:10BD700000EA27EE2A7A944B20EE000AFEEE007AC3
:10BD800083ED007A20EE270A904B68EE087AB6EE33
:10BD900000FAC3ED007A68EE0A7A8D4BC6ED007AA0
:10BDA00028EE2A8A6AEE0A7A83ED008A2AEE2AAA07
:10BDB000884BC7ED007A83ED00AA6AEEAAAA864BEB
:10BDC000F0EE609A64EE8FBAB0EE42CAF0EE61CA4D
:10BDD000B0EE62DAB0EE419AF0EE43FAC3ED00AA9B
:10BDE00025F0FCFAF5EEC0EAF1EE10FAF0EE400AAA
:10BDF00040F3D380794B93ED027AC7EE2E7A9FED14
:10BE0000787AF4EEC77AF1EE10FA40F1BC80754B07
:10BE10009FED751A93ED000AFEF722FE714B95ED2A
:10BE2000007A83ED000A714B1A78714B052AD3ED25
:10BE3000006A704BF2EE0E7A08BFF0EE407A83EDA6
:10BE4000000A67EEA67A6C4BB5EEC07AF1EE10FAF6
:10BE5000C3ED007A2BDDF7EE005AC5EE876A7DEE62
:10BE6000AADAB0EE006ABFEE007AADEE867A2CEE6A
:10BE700026CA38EE4E8A3BEE0ABA6CEEA6CA38EEF7
:10BE8000088A3BEE0BBA2DEE26DA2CEE476A6DEEF1
:10BE9000486AABEE0D6A2CEECBBAE7EE2C6AA8EE40
:10BEA0000CBAE7EE868AE7EEA69AA7EE8B9A534B7A
:10BEB000197ACD070AD55978480707D4D978C1F33C
:10BEC0004000890702D4052A00F0A48098ED007A8A
:10BED0009AED006AD9ED006A94ED004A29EE2B9A9A
:10BEE00068EEAB8A69EEAB9A67EE094A29EEC75A4B
:10BEF000E6EE284AA6EEE85AE4EE694A69EE665A8A
:10BF0000A4EE495AE6EE295A66EEA97A76EEA46ABC
:10BF1000E6EE097AE4EE285A36EE056A26EEA60A1F
:10BF2000E7EE687AA6EE060A37EE257A77EE847A8F
:10BF3000A7EE070A8AED006AA7EEA70AC9ED006A14
:10BF400088ED007AC4ED007AFEF7D4FD9AED006A20
:10BF5000D9ED006A98ED007AD4ED007A26EE006AF9
:10BF600066EE806A27EE007A67EE807A8AED006AD4
:10BF7000C9ED006A88ED007AC4ED007A02B0BDEC2C
:10BF8000108BBDE8F0879FED1E7AF4EEC77AF1EED4
:10BF900010FA02D560EE0F0A39E7DFED1A7A60EE8B
:10BFA000A70A34E7440000207CD6D03DB00F002023
:10BFB000B40F00209C0F0020940F0020D40F00200D
:10BFC000AC0F0020A80F0020A40F0020A00F00201D
:10BFD000980F0020900F00208C0F0020047D00207F
:10BFE000333333BF28000020CDCCCC3D387D00203A
:10BFF00048000020740F0020D80F00203C7D002056
:10C000009A9999BE00000000C00F0020BC0F0020CC
:10C01000B80F00209DED008A1A7ADDED01CA5A4D55
:10C0200028EE080A60F30002AFEEAF0A1A72B6EE0D
:10C0300000CAACEEAC0AFEF75DFDD5ED006AD7EDA7
:10C04000007A524B524A93ED004AD2ED004A96EDE7
:10C05000007A504B504A5149514891ED006A90ED99
:10C06000005A7CEE666A68EE00AA76EEE75A7CEE2D
:10C07000677A2FEE80BA2CEE80AA36EEC40A77EEED
:10C08000C46A77EE647A20EE2A0A67EEAA7A37EE5F
:10C09000247AE6EE8B7AA7EE0B0AD2ED006AB0EEB8
:10C0A000677AD3ED007A37EEA68A77EEE64A28EE75
:10C0B0002A8A76EE457AA4EE8A0A36EE056AA7EE5B
:10C0C0008B8AF0EE477AE6EE0A7A30EE000A77EED7
:10C0D000A77A20EE000AA5EE8A8AA7EEA70AFEF745
:10C0E00009FDD5ED007AD7ED006A2C492C4891ED79
:10C0F000006A90ED005A254B254AD3ED004A92ED97
:10C10000004A244B244AD6ED005A92ED007A7CEE88
:10C11000677A38EE088A77EEE67A3CEE66CA67EE12
:10C12000887A76EE456A36EE056A75EEC45AE6EE12
:10C13000007A93ED006A1B4B37EE067A3CEE64CA38
:10C1400066EE886A27EE087AECEE006AA5EE807A41
:10C1500077EEA77A76EEA66A37EE077A67EECB5AC5
:10C1600026EEEA6AEAEE265A27EE4AAAABEE076AFC
:10C17000AAEEA7AAD3ED006AE6EEA59AA6EE869AE5
:10C18000EAEE268AA2E600BFA00F00208C0F002056
:10C19000A40F0020900F0020AC0F0020980F00206B
:10C1A000A80F0020D00F0020174B1B78012B29D09F
:10C1B0002DE9F041154C164F164E174D2DED028B03
:10C1C00004F10C08B0EE408A384694ED000AF0EE17
:10C1D000480AFEF769FCF0EE407A284696ED000A20
:10C1E000E4EC017AF0EE480AFEF75EFC444507F500
:10C1F0009A77A6EC010A05F59A75E5D1BDEC028B9C
:10C20000BDE8F081704700BF207D0020047D002044
:10C21000B00B0020F87C00201408002070B52DED34
:10C22000028BAF4CA37A5B0782B003D502B0BDECA2
:10C23000028B70BDE3781E07B0EE408A40F1D980D2
:10C240000AF08AFD6379DD0630D56378580704D497
:10C25000A44B1B78002B40F02081237A9FEDA24A4B
:10C2600023F00103F0EE443AB0EE443A23729F4BC0
:10C270009F4993ED021AD1ED022A91ED002AD1EDEA
:10C28000011AD3ED000A93ED010AF0EE484AFFF7D8
:10C290002FFDFFF70FFA96499648FFF739FB2378F1
:10C2A000590603D5E3781A0740F1FF80E3781B07AE
:10C2B00040F1E180B0EE480AFFF718FC8E4BD3ED59
:10C2C000007AF4EE677AF1EE10FA40F0C2809FED4A
:10C2D0008B7AF4EEC77AF1EE10FA00F3BA80DFED54
:10C2E000886AF4EEE67AF1EE10FA00F1B280854B3E
:10C2F000D3ED007AF4EE677AF1EE10FA40F0A980FF
:10C30000F4EEC77AF1EE10FA00F3A380F4EEE67AC9
:10C31000F1EE10FA00F19D807B4BD3ED007AF4EE44
:10C32000677AF1EE10FA40F09480F4EEC77AF1EEFD
:10C3300010FA00F38E80F4EEE67AF1EE10FA00F1D6
:10C340008880724BD3ED007AF4EE677AF1EE10FA42
:10C350007FD1F4EEC77AF1EE10FAB0EE476A78DCDE
:10C36000F4EEE67AF1EE10FAF0EE665A71D4684B0C
:10C37000D3ED016AF4EE666AF1EE10FA69D1F4EEDB
:10C38000C76AF1EE10FA64DCF4EEE56AF1EE10FA39
:10C390005FD493ED007AB4EE477AF1EE10FA58D1FB
:10C3A000B4EEC67AF1EE10FA53DCB4EEE57AF1EEB3
:10C3B00010FA4ED4D3ED027AF4EE677AF1EE10FA69
:10C3C00047D1F4EEC67AF1EE10FA42DCF4EEE57AEB
:10C3D000F1EE10FA3DD44F4B4F48504AC3ED016A7D
:10C3E0000124002183ED007AC3ED027A04701180EC
:10C3F0001CE71EF05FFC0BF08DFD494B1B78012BF9
:10C4000024D03B4B474A394D474E93ED000A0192E9
:10C410001046F0EE480A0093FEF746FB009BF0EE54
:10C42000407AE3EC017A95ED000A00933046F0EE95
:10C43000480AFEF739FB3D49009B019AA5EC010A29
:10C440008B4202F59A7206F59A76DED122F0F6FD5D
:10C45000F8E6314B1B789BB9354963790A882F4838
:10C4600043F080030132637101230A80038002B02C
:10C47000BDEC028B70BDB0EE480A01F0DDFF19E79C
:10C48000244A234B5068116892689A60586019607A
:10C49000FFF7B4F9FFF70EF9DEE7264B93ED003A0C
:10C4A000D3ED013A93ED024AE1E6D0ED010A90EDB9
:10C4B000000AB0EE481A22F061F91F4A1F4BD2E978
:10C4C000000192ED027BC3E9000103F5A66110694A
:10C4D000586181ED007B516903F244521160E5E639
:10C4E0003C7D0020AC8E002000000000F87C002085
:10C4F000047D0020C40F0020C00F0020CAF2497143
:10C50000CAF249F1BC0F0020B80F0020B40F002080
:10C51000E07C0020640F0020600F0020720F0020DC
:10C52000207D0020B00B002014080020107D00208A
:10C53000700F00207CBD002068AA0020901600200B
:10C540002DE9F047414C424FD4ED000A97ED000A27
:10C55000DFF83C9186B0FEF773FA3E4A3E4BD4EDCD
:10C56000000AF0EE407A92ED000AC3ED007AFEF781
:10C5700067FA3A4A3A49107809783A4B3A4A33F816
:10C58000103032F81120394907EE902A06EE903A21
:10C590000B78374AB0EE407AF8EE677AB8EE660A62
:10C5A000012B82ED007A89ED000AC7ED007A1ED0DA
:10C5B000304C314E314DDFF8DC8004F5677A20468F
:10C5C000FEF754FA97ED000A3046FEF74FFA04F5ED
:10C5D0009A7498ED000A2846FEF748FA544514D09C
:10C5E00099ED000A06F59A7605F52E75E7E7234CD6
:10C5F000DFF8A08004F62805204698ED000A04F52F
:10C600002E74FEF733FAAC42F6D11D4C04F6280521
:10C610001C4E0FCEEC46ACE80F0096E803006A46CD
:10C620008CE803002046062104F52E74FEF7B0F9CD
:10C63000A542EDD1144B15480022B6EE000A1A703F
:10C6400006B0BDE8F047FEF711BA00BF347D002008
:10C650003C00002034000020BC060020C000002068
:10C66000C10000201867030828670308207D002008
:10C67000B8060020B00B002014080020F83C002071
:10C68000E43B0020D45803084C0F0020E0060020B3
:10C69000400000202C00002091ED016AD2ED017ACB
:10C6A000D1ED006A92ED007AD1ED025A67EEC67ABA
:10C6B00092ED026AE6EE877AD1ED036A92ED037A93
:10C6C000E5EEC67AE6EEC77AC0ED007A92ED006A32
:10C6D000D1ED017AD1ED006A92ED017AD1ED025AE5
:10C6E00067EE867A92ED036AE6EE877AD1ED036A09
:10C6F00092ED027AE5EE867AE6EEC77AC0ED017A2F
:10C7000091ED016AD2ED037AD1ED006A92ED027AE1
:10C71000D1ED025A67EEC67A92ED006AE6EE877AAC
:10C72000D1ED036A92ED017AE5EE867AE6EE877A3C
:10C73000C0ED027AD1ED017A92ED026AD1ED006A84
:10C7400092ED037AD1ED025A67EE867A92ED016A94
:10C75000E6EE877AD1ED036A92ED007AE5EEC67ACD
:10C76000E6EE877AC0ED037A704700BF344B91ED57
:10C77000017AD3ED007A334BD1ED006AD3ED004A54
:10C78000314B27EE877A93ED005A304BA4EEA67A10
:10C79000D1ED026AD3ED005AA5EE267AD1ED036AF7
:10C7A000A5EEA67A80ED007A91ED006AD1ED016ADE
:10C7B00091ED034A27EEC66AB5EEC07AA4EEA66AEA
:10C7C000D1ED026AA5EE446AF1EE10FAA5EEA66A72
:10C7D00080ED016AD1ED036A91ED024AD1ED003A94
:10C7E00067EEA66AE4EE846A91ED014AE5EE636ABB
:10C7F000E5EEC46AC0ED026A91ED024AD1ED033A5A
:10C8000067EEC47A91ED014AE4EEA37AD1ED004AD5
:10C81000E5EE047AE5EEE47AC0ED037A0FD5B1EEE9
:10C82000477AB1EE466AF1EE666AF1EE677A80ED1C
:10C83000007A80ED016AC0ED026AC0ED037A7047AC
:10C84000BC0F0020C00F0020B80F0020B40F002044
:10C8500010B52DED068BF6EE009A21EE298AF0EE4A
:10C86000408AB0EE480A0446B0EE60AA24F0C2FE48
:10C87000B0EE409AB0EE480A24F0FCFE68EEA98AB9
:10C88000B0EE408AB0EE680A24F0B4FEF0EE40AAA2
:10C89000B0EE680A24F0EEFE2AEE29AAF0EE408AF5
:10C8A000B0EE4A0A24F0A6FEF0EE409AB0EE4A0A34
:10C8B00024F0E0FE28EE2A5A28EE288A20EE456A67
:10C8C00069EE288A68EE005AA8EEA96A29EE2A9A2B
:10C8D00066EE066AE9EE295A68EE297AE5EEA56A5F
:10C8E000E9EE007A20EE687AB0EE660AA5EE297AC3
:10C8F000A7EEA70A84ED016AA7EE070AC4ED027A43
:10C9000084ED037AC4ED005AFEF7F4F8BDEC068B13
:10C9100094ED006AD4ED016A94ED027AD4ED037AC5
:10C9200026EE006A66EE806A27EE007A67EE807A6D
:10C9300084ED006AC4ED016A84ED027AC4ED037AE5
:10C9400010BD00BF114B1B78EBB1114A1378834225
:10C950001AD010B582B0002840F6FF710CBF0C460B
:10C960001924019045F2555024F0A2F8204624F0F5
:10C97000ABF824F0AFF8019B054A137002B0BDE894
:10C98000104024F0A7B8704724F0A4B8DE0F0020B0
:10C99000DC0F002010B545F2555082B024F088F825
:10C9A000042024F08BF845F2555024F081F840F62D
:10C9B000FF7024F089F824F08DF824F093F8174BD9
:10C9C000002401201C7024F053F9154B15491A78E6
:10C9D000154B032A4FF001000CBF02462246087097
:10C9E0001A7004D0114A0023138002B010BD2046F3
:10C9F00023F0FAFE4AF278510C4A0192B1EB104F43
:10CA000018BF002010802146204623F0DDFE064B93
:10CA1000019A1B78002BE6D002B010BDDC0F00207D
:10CA200001A10020DE0F0020DD0F0020E00F00201C
:10CA3000024B1B7803B9704724F04CB8DE0F00207E
:10CA4000054B1B7803B9704740F0254141F4F001D4
:10CA5000002023F0B9BE00BFDE0F0020204901EB0B
:10CA60008013D3ED087AF5EE407A00224FF0000CE7
:10CA7000F1EE10FA1A615A61C3F82CC083F830C085
:10CA80005A639A6383F83CC0C3ED007AC3ED037A1E
:10CA90005A609A6008D4B1EEE77A01EB801183ED19
:10CAA000097A81ED0A7A704700B5B0EE670A85B061
:10CAB000CDE90230CDED017A24F074FD029BB0EE99
:10CAC000407A9DED010A83ED097A24F06BFD03980D
:10CAD000034901EB801181ED0A0A05B000BD00BFDA
:10CAE000E40F0020F0B5384C384D394F394EA1B025
:10CAF00001202566A765E665FFF7B0FF0220C4F8B0
:10CB0000A050C4F89870C4F89C60FFF7A7FF324BA0
:10CB1000324D3348C4F8C050002119706A46802154
:10CB20000EF064FD2F4B009A9A424BD1DDED0A6A5C
:10CB30009DED0B7ADDED055A9DED066A089A039B83
:10CB400004980999DDED0F7A226166EEA64A0D9AE6
:10CB5000616127EE075A65EEA53A26EE064A079967
:10CB60002365C4F8902002230E9A60650C98C4F8DF
:10CB70009420C4ED096A119A84ED0A7AC4ED195A19
:10CB8000E06284ED1A6AE166C4ED103A84ED134A5E
:10CB900084F87030C4ED004A84ED035A84F83030D4
:10CBA000C4ED297A9DED107AC4F8AC2067EEA77A1F
:10CBB00067EE076A84ED2A7AC4ED207AC4ED236A11
:10CBC00084F8B03021B0F0BDE40F0020CDCCCC3DD6
:10CBD00095BFD633CD024C35E20F00206F12033BD8
:10CBE00000000C084944454ED54AD64B127883EDD7
:10CBF000300A052A00D07047D34A1278032AFAD0A7
:10CC000010B5D248D24A93F87C100068D2ED017A70
:10CC100084B0002900F0A08093ED1D7AB5EEC07AB3
:10CC2000F1EE10FA00F1BC81DFEDCA6AB4EEE67AEB
:10CC3000F1EE10FACCBF01210021002900F08C8018
:10CC4000D3ED1E6A37EEE66AB5EEC06AF1EE10FA71
:10CC500000F19C81DFEDC05AB4EEE56AF1EE10FA06
:10CC6000CCBF01210021002976D0D3ED135AD3ED9A
:10CC7000111A93ED122A93ED101AD3ED170A93EDC2
:10CC8000154AD3ED143A25EE873A61EE872AA2EED3
:10CC9000263AE1EE262A23EE075A24EE076AA2EE90
:10CCA000A65AA3EEA66A35EE205A37EEC66A82EE81
:10CCB000850AC3EE052AB7EE003AB7EE005AA0EE99
:10CCC000663AA2EEC75A20EE077AE0EE063A62EE26
:10CCD000A66A22EE470AA2EE864AA3EE010A26EED3
:10CCE000E16AD3ED160AC3ED143AA5EE856A66EE45
:10CCF000C16A65EEC75A30EE200AE2EE056AE3EE3D
:10CD0000215A36EE206AB5EE400AF1EE10FAC3ED74
:10CD1000126A83ED154A58BFF1EEC06A83ED100A1E
:10CD2000C3ED115A83ED136A00F17B81B5EE406AC1
:10CD3000F1EE10FAC3ED196A58BFF1EEC66A00F1C0
:10CD40006181D96E854C01314FF0010CD96684F8B0
:10CD500000C0C3ED1A6A00E0D96E58674FF0010CAD
:10CD6000C829C3ED1E7A83F87CC000F2AD8000298B
:10CD700040F0BE807A4993F8BC00096892ED027ACF
:10CD8000002800F0B980D3ED2D7AF5EEC07AF1EEEF
:10CD900010FA00F10F81DFED6F6AF4EEE67AF1EE42
:10CDA00010FACCBF01220022002A00F0A580D3EDAA
:10CDB0002E6A37EE666AB5EEC06AF1EE10FA00F13F
:10CDC000DB80DFED655AB4EEE56AF1EE10FACCBF18
:10CDD00001220022002A00F08F8093ED231A93EDA8
:10CDE000212AD3ED222AD3ED201AD3ED270AD3ED41
:10CDF000254A93ED244A67EE813A27EE823AE6EE21
:10CE0000A23AA6EEA13A67EEA35A27EEA46AE6EE8E
:10CE1000835AA6EE846A75EEA05A37EE466A83EE10
:10CE2000250A83EEA53AF7EE003AF7EE005AE6EE51
:10CE3000C03AE7EEC35A67EE807AA6EE004A66EE85
:10CE4000836A27EEE20AE6EE034AA1EEA30A26EE83
:10CE5000C26AD3ED260A83ED244AA1EE256A67EE65
:10CE6000C17A66EEE16A30EE200AE2EE237AE2EE63
:10CE7000A56A36EE206AB5EE400AF1EE10FAC3ED6F
:10CE8000254A83ED200AC3ED217AC3ED226A83EDA2
:10CE9000236A00F1A780F1EEC07AB5EE406AF1EEA8
:10CEA00010FAC3ED297A00F18F80F1EEC67AD3F83B
:10CEB000AC202A4801324FF0010C80F800C0C3F8C2
:10CEC000AC20C3ED2A7A19E0DFED267A93ED197ACA
:10CED000B4EEE77AF1EE10FA0AD593ED1A7AB4EED1
:10CEE000E77AF1EE10FA03D5022183F8701041E7DA
:10CEF000012183F870103DE7D3F8AC20C3F8B410DB
:10CF00000120C82A83ED2E7A83F8BC0014D9DFED06
:10CF1000157A93ED297AB4EEE77AF1EE10FA06D598
:10CF200093ED2A7AB4EEE77AF1EE10FA20D40122DA
:10CF300083F8B02004B010BD002AFBD0F7E700BF93
:10CF4000387D0020E40F0020B18E0020EC4000204E
:10CF5000F87C0020CDCCCC3DCDCC4C3DE20F002068
:10CF6000A44300200AD7233CCDCC4CBDCDCCCCBDB6
:10CF7000022283F8B020DDE75FED055AB4EEE56AE2
:10CF8000F1EE10FA4CBF0122002223E75FED0A5AAE
:10CF9000B4EEE56AF1EE10FA4CBF0121002162E621
:10CFA0005FED0E6AB4EEE67AF1EE10FA4CBF0121A5
:10CFB000002142E65FED136AF4EEE67AF1EE10FA34
:10CFC0004CBF01220022EFE6B0EE460A8DED027A58
:10CFD000019124F0E7FA1B4B9DED027A0199F0EEE6
:10CFE000407A64E78DED036A8DED027A019124F0B9
:10CFF000D9FA144B9DED036A9DED027A0199F0EE8A
:10D00000407A4AE7B0EE460A0290CDED017A24F06C
:10D01000C9FADDED017A02980B4A0A4BF0EE406A3C
:10D020008FE68DED036A0290CDED017A24F0BAFA15
:10D03000DDED017A02989DED036A034A014BF0EEA3
:10D04000406A73E6E40F0020F87C002010B5204C05
:10D050002378A2B0002B39D01E4B1F491A6D0291C4
:10D06000012103910592596D5A6ED3F8C0000490C6
:10D07000CDE90612D3E91A12CDE90812D3E9041258
:10D08000CDE90A12D3E90912CDE90C12D96AD3F815
:10D090009020CDE90E12D3F89410D3F8A420CDE956
:10D0A0001012D3F8A82012920021D3F8AC301393B9
:10D0B000382214A828F03AFB02A980230091074ADD
:10D0C000502101200EF0DEFA0023237022B010BDA3
:10D0D000E20F0020E40F00204944454E00000C08F8
:10D0E000154A164B1648D2ED006A93ED017AD0ED41
:10D0F000007A144992ED016A134AE6EE877A93EDBD
:10D10000007AD1ED006A114BE6EE076A92ED007AE3
:10D1100093ED085AD3ED095A0D4B77EE877AB6EEA8
:10D12000007AB0EE476AA5EE266AA5EEA77A83EDEF
:10D13000086A83ED097A7047E07C0020F80500203A
:10D14000D43800208481002000300020BC10002052
:10D1500064060020BE4B1B78002B40F09780BD4A30
:10D16000BD48BE49D2ED007A91ED007AD0ED005A6B
:10D17000BB4BBC4993ED006A0978BB4867EE876AF0
:10D1800067EEA57AE6EE256A0529E6EE477AC3ED55
:10D19000006A90ED007AC2ED007A00F0F180B34BA6
:10D1A0005B7A5B0720D5DFEDB25AB24BB7EE006A6F
:10D1B00077EE655A36EE476A93ED005AAE4BF4EEC1
:10D1C000C65AF1EE10FAD8BFB0EE656A26EE056ACF
:10D1D00093ED005AF1EE465AF4EEC55AF1EE10FA0C
:10D1E00040F3E380C3ED005AA44B1B78152B3BD8CA
:10D1F000DFE813F08C01A9011600A800A800A80020
:10D20000A800F200F200640164013A003A003A001A
:10D210003A003A003A003A003A003A00A800A80062
:10D22000954B974A974992ED056A93ED004AD1EDE7
:10D23000005A954BB7EE005A26EE046A75EE654A21
:10D2400075EE855AB0EE465AA4EEA75A94EEA76A38
:10D25000E5EEA76AF1EE455AF1EE467AC3ED026AB1
:10D26000C3ED005AC3ED017A884B196851B1864A63
:10D270000023D2ED007A013377EE877A9942E2EC0F
:10D28000017AF6D1824B83ED007A7047013B012B86
:10D2900000D97047754AD3789807C3F3400140F12D
:10D2A0009080714BD3ED007AD3789B071ED4694BE5
:10D2B00093ED007AB5EEC07AF1EE10FA01D5B1EE39
:10D2C000477A744BD3ED006AE6EE877AF5EEC07AC2
:10D2D000F1EE10FA00F172816F4B93ED007AF4EEEB
:10D2E000C77AF1EE10FAC8BFF0EE477AF5EEC07AD1
:10D2F000F1EE10FA00F15681B7EE007AF4EEC77A3B
:10D30000F1EE10FACCBF01210021B7EE007A00291E
:10D3100018BFF0EE477A614A574BD2ED006A93EDA1
:10D32000007A5B4A584BF0EE675AB0EE676AE6EE59
:10D33000875AA6EEC76AC3ED005AC2ED007A83EDA4
:10D34000016A70474C4A564B92ED006A93ED005AC1
:10D350004D4B26EE056AF1EE665A36EE675A75EECB
:10D36000C65A76EEC66A76EE277A82ED006AC3ED7B
:10D37000015AC3ED026A83ED005AC3ED037A73E7E5
:10D38000484B494AD3ED005A92ED006A474B37EEBD
:10D39000066A93ED007A354B5B7A26EE256A5B07C9
:10D3A00026EE077A7FF520AFFDE6B4EEC65AF1EE21
:10D3B00010FAD4BFF0EE455AF0EE465AC3ED005ACB
:10D3C00012E73B4B1B78002B00F0EF80D378DFEDAA
:10D3D000397A9A0799D46AE7274A314B9FED366A22
:10D3E000D2ED005A66EE866A93ED006A264B25EE72
:10D3F000866AB6EE005AB0EE664AF0EE664AF0EE85
:10D40000665A97EEC54AD7EE855AE7EEC54AE7EE6B
:10D41000856AB0EE463AF0EE463AA7EEC53AD7EE48
:10D42000853A34EE464A34EEC65A75EE865A76EEA2
:10D43000867A82ED006A83ED003A83ED014A83ED3E
:10D44000025AC3ED035AC3ED047AC3ED053A0BE764
:10D45000B18E0020080600204C000020B4100020EF
:10D460000C060020387D0020B03800203C7D0020D4
:10D47000CDCC4C3DE800002004060020F500002043
:10D48000BC100020AC100020640600200400002026
:10D49000B01000209C3800209038002078810020B7
:10D4A00008000020A0000020C8380020A4000020B0
:10D4B00090BE0020000000003BCD133F414A424B8C
:10D4C00092ED006A93ED005A404B26EE056AF1EEAC
:10D4D000665A76EE674A75EEC65A76EEC66A76EEFC
:10D4E000277AB6EE005A65EE855A66EE856A64EED6
:10D4F000854A67EE857A82ED006AC3ED015AC3ED75
:10D50000026AC3ED004AC3ED037AADE6304B9FEDEE
:10D51000315AD3ED004A2D4BB7EE006A74EE865AAD
:10D5200036EE646A65EEA75A67EEC67AF0EE654A93
:10D53000E6EEC54AE6EE855AC3ED014AC3ED025A4E
:10D54000C3ED007A90E69FED236A1E4BB0EE675A5A
:10D55000F0EE675AA6EEC65AE6EE865A93ED006ADA
:10D56000DFED1D6A194BF0EE673AB0EE454AF0EE7A
:10D57000654AD6EE263AA6EE264AE6EE264AD6EECC
:10D58000667AA6EE665AE6EE665AC3ED003A83ED79
:10D59000014AC3ED024AC3ED037A83ED045AC3ED99
:10D5A000055A61E6DFED0D7AB5E60D490D4BD1ED7B
:10D5B000007A93ED007A77EE877A75E6DFED077AE9
:10D5C0000021A2E6040600200800002064060020D6
:10D5D000AC10002036CD933FDAAC2A3F00000000AB
:10D5E000B0380020C8380020B54B1B78152B17D851
:10D5F000DFE813F0BB001600160016001600160038
:10D6000016001600160016001600C900F6002401C8
:10D610008A01D90194023A021C03F2025703430023
:10D62000A84AA94BA948AA4990ED005A90ED016A71
:10D63000A848D1ED015AD0ED007ADFF8C8C291EDCB
:10D64000007ADCED006AA449E5EE257AE6EE076A89
:10D6500091ED007A92ED085AD2ED095A77EE877A69
:10D66000B6EE007AB0EE476AA6EE856AA7EEA57A16
:10D6700083ED086A83ED097A70479849984ACB7818
:10D68000D2ED007A9A0704D4964B93ED007A77EEA8
:10D69000877AF5EEC07AF1EE10FA00F1A283B7EEC8
:10D6A000007AF4EEC77AF1EE10FAD8BFB0EE677ADE
:10D6B0008D488E4B834ADFF844C2D0ED002A1B7898
:10D6C0008B4892ED043ADCED006AD0ED007A002B35
:10D6D00000F08D83CB789B0700F17484F5EEC02AAF
:10D6E000F1EE10FA00F17F84B0EE625A814B93EDB7
:10D6F000006AF0EE665AE6EE055A734B63EE266A50
:10D70000B0EE675A92ED056A92ED022AA5EE835AB1
:10D71000F0EE673AE5EEC33AB0EE664AA6EE674A27
:10D72000D6EE676AF6EE007AD2ED035AF0EE674A5B
:10D73000E2EE054AB0EE675AA5EEA35AF0EE675A3C
:10D74000E4EE035AE6EE267A77EE226A37EE627A44
:10D75000C3ED024A83ED035AC3ED016A83ED007AFB
:10D76000C3ED045AC3ED057A5CE7614B554A93ED6E
:10D77000007AD2ED046A544BF6EE007AE6EE877A30
:10D78000C3ED047A4EE7554B5949DB784D4A56486C
:10D7900091ED007A92ED054AD0ED006A990704D424
:10D7A000554BD3ED007AA7EEA67A544BF6EE007AED
:10D7B000D2ED024A92ED045AD3ED005A424BB0EE3C
:10D7C000676AA4EE076AB0EE677AA4EEA67AE5EE81
:10D7D000257A83ED056A83ED027AC3ED047A21E7A9
:10D7E000464A434BD2ED007AD3ED006A354A364BB8
:10D7F000D2ED033A92ED024A3B4993ED016A91ED75
:10D80000005AF1EE675A37EEA67A75EEE65AF6EE52
:10D81000007AF0EE674AE3EE874AD3ED006AC3ED83
:10D82000034AE4EE257A36EE456A36EE857A83EDD4
:10D83000016A83ED007AC3ED027AF3E6274B214AB1
:10D84000DB7829482D4992ED046AD0ED007A91EDFC
:10D85000007A9B070CD4F5EEC07AF1EE10FA00F1D5
:10D86000BC83F0EE675A234BD3ED006AA6EEA57A8F
:10D870001F4BF0EE676AE6EE076AE6EE477A93ED35
:10D88000007A92ED025AD2ED035A1D4B76EE876A6A
:10D8900077EE877AB6EE007AB0EE476AA5EE266A92
:10D8A000A5EEA77AD3ED006AD2ED067A064B67EEB5
:10D8B000A67A83ED026A83ED037AC3ED067AB1E6B8
:10D8C000F5000020BC10002064060020E07C002051
:10D8D000F8050020D4380020003000203C7D0020D6
:10D8E000B0380020C83800200C060020A810002006
:10D8F00004060020A43800208838002008060020F4
:10D900000006002084810020BD49BE48CB78BE4A75
:10D91000DFF810C3D0ED006A92ED056ADCED007A05
:10D92000980704D4B94B93ED007AE7EE276AC978DB
:10D93000B74BB848B6EE007AA6EE667A890783ED53
:10D94000057AD2ED046A90ED007A0CD4F5EEC07A37
