:020000040800F2
:10000000000002208D0803082565010875670108B6
:100010008D670108916701089567010800000000DD
:1000200000000000000000000000000099670108C7
:100030009D67010800000000A1670108096501082B
:10004000F9080308F9080308F9080308F908030880
:10005000F9080308F9080308F9080308F908030870
:10006000F9080308F9080308F9080308F908030860
:10007000F9080308F908030809690108516901082A
:10008000F9080308C1680108F9080308F90803081A
:10009000F9080308F9080308F9080308F908030830
:1000A000F9080308F9080308F9080308F908030820
:1000B000CD670108F9080308F9080308216A010857
:1000C000196A0108316A0108296A0108F908030858
:1000D000F9080308E1690108E9690108F169010803
:1000E000F9080308F9080308CDCE0108A56701083F
:1000F000F9080308F9080308F908030899690108D1
:10010000F9080308F908030855680108F908030805
:10011000F9690108116A0108F9080308F9080308D8
:10012000F9080308F9080308F9080308F90803089F
:10013000F9080308F9080308F9080308F90803088F
:10014000F9080308F9080308F9080308D5CE0108DF
:10015000F9080308F908030879680108F908030891
:10016000416A0108396A0108F9080308F908030817
:10017000F9080308F9080308F9080308F90803084F
:08018000F9080308F90803085F
:1080000081F0004102E000BF83F0004330B54FEA49
:1080100041044FEA430594EA050F08BF90EA020FB6
:108020001FBF54EA000C55EA020C7FEA645C7FEA49
:10803000655C00F0E2804FEA5454D4EB5555B8BF6C
:108040006D420CDD2C4480EA020281EA030382EADD
:10805000000083EA010180EA020281EA0303362D6F
:1080600088BF30BD11F0004F4FEA01314FF4801C42
:108070004CEA113102D0404261EB410113F0004F54
:108080004FEA03334CEA133302D0524263EB43030B
:1080900094EA050F00F0A780A4F10104D5F1200EA9
:1080A0000DDB02FA0EFC22FA05F2801841F1000104
:1080B00003FA0EF2801843FA05F359410EE0A5F1D8
:1080C00020050EF1200E012A03FA0EFC28BF4CF009
:1080D000020C43FA05F3C01851EBE37101F00045BF
:1080E00007D54FF0000EDCF1000C7EEB00006EEBCC
:1080F0000101B1F5801F1BD3B1F5001F0CD3490856
:108100005FEA30004FEA3C0C04F101044FEA4452AC
:1081100012F5800F80F09A80BCF1004F08BF5FEA33
:10812000500C50F1000041EB045141EA050130BD13
:108130005FEA4C0C404141EB0101013C28BFB1F525
:10814000801FE9D291F0000F04BF01460020B1FA70
:1081500081F308BF2033A3F10B03B3F120020CDA43
:108160000C3208DD02F1140CC2F10C0201FA0CF021
:1081700021FA02F10CE002F11402D8BFC2F1200C86
:1081800001FA02F120FA0CFCDCBF41EA0C0190403C
:10819000E41AA2BF01EB0451294330BD6FEA040485
:1081A0001F3C1CDA0C340EDC04F11404C4F1200270
:1081B00020FA04F001FA02F340EA030021FA04F382
:1081C00045EA030130BDC4F10C04C4F1200220FAD9
:1081D00002F001FA04F340EA0300294630BD21FA17
:1081E00004F0294630BD94F0000F83F4801306BFDD
:1081F00081F480110134013D4EE77FEA645C18BFD1
:108200007FEA655C29D094EA050F08BF90EA020F67
:1082100005D054EA000C04BF1946104630BD91EA5F
:10822000030F1EBF0021002030BD5FEA545C05D162
:108230004000494128BF41F0004130BD14F58004A1
:108240003CBF01F5801130BD01F0004545F0FE4115
:1082500041F470014FF0000030BD7FEA645C1ABF4A
:10826000194610467FEA655C1CBF0B46024650EA81
:10827000013406BF52EA033591EA030F41F40021AD
:1082800030BD00BF90F0000F04BF0021704730B533
:108290004FF4806404F132044FF000054FF0000108
:1082A00050E700BF90F0000F04BF0021704730B5C9
:1082B0004FF4806404F1320410F0004548BF40429E
:1082C0004FF000013EE700BF42004FEAE2014FEAF3
:1082D00031014FEA02701FBF12F07F4393F07F4FCE
:1082E00081F06051704732F07F4208BF704793F0D1
:1082F0007F4F04BF41F40021704730B54FF46074E4
:1083000001F0004521F000411CE700BF50EA0102E6
:1083100008BF704730B54FF000050AE050EA01028F
:1083200008BF704730B511F0004502D5404261EBFF
:1083300041014FF4806404F132045FEA915C3FF440
:10834000D8AE4FF003025FEADC0C18BF03325FEADD
:10835000DC0C18BF033202EBDC02C2F1200300FA8E
:1083600003FC20FA02F001FA03FE40EA0E0021FAB3
:1083700002F11444BDE600BF70B54FF0FF0C4CF4A1
:10838000E06C1CEA11541DBF1CEA135594EA0C0F53
:1083900095EA0C0F00F0DEF82C4481EA030621EA8E
:1083A0004C5123EA4C5350EA013518BF52EA0335C9
:1083B00041F4801143F4801338D0A0FB02CE4FF07B
:1083C0000005E1FB02E506F00042E0FB03E54FF0AB
:1083D0000006E1FB03569CF0000F18BF4EF0010EA3
:1083E000A4F1FF04B6F5007F64F5407404D25FEA9F
:1083F0004E0E6D4146EB060642EAC62141EA555152
:108400004FEAC52040EA5E504FEACE2EB4F1FD0C93
:1084100088BFBCF5E06F1ED8BEF1004F08BF5FEA11
:10842000500E50F1000041EB045170BD06F00046C3
:1084300046EA010140EA020081EA0301B4EB5C0470
:10844000C2BFD4EB0C0541EA045170BD41F4801168
:108450004FF0000E013C00F3AB8014F1360FDEBF8D
:10846000002001F0004170BDC4F10004203C35DA69
:108470000C341BDC04F11404C4F1200500FA05F3EC
:1084800020FA04F001FA05F240EA020001F000428D
:1084900021F0004110EBD37021FA04F642EB060103
:1084A0005EEA430E08BF20EAD37070BDC4F10C042D
:1084B000C4F1200500FA04F320FA05F001FA04F2F1
:1084C00040EA020001F0004110EBD37041F10001DD
:1084D0005EEA430E08BF20EAD37070BDC4F12005E8
:1084E00000FA05F24EEA020E20FA04F301FA05F250
:1084F00043EA020321FA04F001F0004121FA04F2F8
:1085000020EA020000EBD3705EEA430E08BF20EAC7
:10851000D37070BD94F0000F0FD101F00046400001
:1085200041EB010111F4801F08BF013CF7D041EA83
:10853000060195F0000F18BF704703F00046520087
:1085400043EB030313F4801F08BF013DF7D043EA58
:108550000603704794EA0C0F0CEA135518BF95EA0E
:108560000C0F0CD050EA410618BF52EA4306D1D195
:1085700081EA030101F000414FF0000070BD50EAB4
:10858000410606BF1046194652EA430619D094EA3E
:108590000C0F02D150EA013613D195EA0C0F05D128
:1085A00052EA03361CBF104619460AD181EA03017C
:1085B00001F0004141F0FE4141F470014FF0000034
:1085C00070BD41F0FE4141F4780170BD70B54FF0CF
:1085D000FF0C4CF4E06C1CEA11541DBF1CEA13554F
:1085E00094EA0C0F95EA0C0F00F0A7F8A4EB050431
:1085F00081EA030E52EA03354FEA013100F0888028
:108600004FEA03334FF0805545EA131343EA1263F0
:108610004FEA022245EA111545EA10654FEA0026A5
:108620000EF000419D4208BF964244F1FD0404F55E
:10863000407402D25B084FEA3202B61A65EB0305BA
:108640005B084FEA32024FF480104FF4002CB6EB77
:10865000020E75EB030E22BFB61A754640EA0C00F7
:108660005B084FEA3202B6EB020E75EB030E22BF37
:10867000B61A754640EA5C005B084FEA3202B6EB78
:10868000020E75EB030E22BFB61A754640EA9C0037
:108690005B084FEA3202B6EB020E75EB030E22BF07
:1086A000B61A754640EADC0055EA060E18D04FEAC5
:1086B000051545EA16754FEA06164FEAC30343EA65
:1086C00052734FEAC2025FEA1C1CC0D111F4801F32
:1086D0000BD141EA00014FF000004FF0004CB6E72B
:1086E00011F4801F04BF01430020B4F1FD0C88BFCA
:1086F000BCF5E06F3FF6AFAEB5EB030C04BFB6EBD5
:10870000020C5FEA500C50F1000041EB045170BDC7
:108710000EF0004E4EEA113114EB5C04C2BFD4EBF4
:108720000C0541EA045170BD41F480114FF0000E78
:10873000013C90E645EA060E8DE60CEA135594EAF4
:108740000C0F08BF95EA0C0F3FF43BAF94EA0C0FF7
:108750000AD150EA01347FF434AF95EA0C0F7FF46C
:1087600025AF104619462CE795EA0C0F06D152EAC0
:1087700003353FF4FDAE1046194622E750EA4106A4
:1087800018BF52EA43067FF4C5AE50EA41047FF4B5
:108790000DAF52EA43057FF4EBAE12E74FF0FF3C1A
:1087A00006E000BF4FF0010C02E000BF4FF0010CEB
:1087B0004DF804CD4FEA410C7FEA6C5C4FEA430C64
:1087C00018BF7FEA6C5C1BD001B050EA410C0CBFB3
:1087D00052EA430C91EA030F02BF90EA020F002015
:1087E000704710F1000F91EA030F58BF994208BF7C
:1087F00090422CBFD8176FEAE37040F00100704739
:108800004FEA410C7FEA6C5C02D150EA013C07D18F
:108810004FEA430C7FEA6C5CD6D152EA033CD3D0DA
:108820005DF8040B704700BF8446104662468C46D4
:108830001946634600E000BF01B5FFF7B7FF002807
:1088400048BF10F1000F01BD4DF808EDFFF7F4FF30
:108850000CBF012000205DF808FB00BF4DF808EDBB
:10886000FFF7EAFF34BF012000205DF808FB00BFDE
:108870004DF808EDFFF7E0FF94BF012000205DF800
:1088800008FB00BF4DF808EDFFF7CEFF94BF0120B5
:1088900000205DF808FB00BF4DF808EDFFF7C4FFAE
:1088A00034BF012000205DF808FB00BF4FEA410CF7
:1088B0007FEA6C5C02D150EA013C0AD14FEA430CDA
:1088C0007FEA6C5C02D152EA033C02D14FF0000017
:1088D00070474FF0010070474FEA410212F5001255
:1088E00015D211D56FF47873B3EB625212D94FEAF7
:1088F000C12343F0004343EA505311F0004F23FAE1
:1089000002F018BF404270474FF00000704750EA35
:10891000013005D111F0004008BF6FF000407047F2
:108920004FF00000704700BF4FEA4102B2F1E04350
:1089300024BFB3F5001CDCF1FE5C0DD901F0004C46
:108940004FEAC0024CEA5070B2F1004F40EB830096
:1089500008BF20F00100704711F0804F21D113F1C2
:108960003872BCBF01F00040704741F480114FEAFB
:108970005252C2F11802C2F1200C10FA0CF320FA84
:1089800002F018BF40F001004FEAC1234FEAD323A1
:1089900003FA0CFC40EA0C0023FA02F34FEA43030B
:1089A000CCE77FEA625307D150EA01331EBF4FF094
:1089B000FE4040F44000704701F0004040F0FE40AF
:1089C00040F40000704700BF80F0004002E000BFAC
:1089D00081F0004142001FBF5FEA410392EA030FAA
:1089E0007FEA226C7FEA236C6AD04FEA1262D2EBF4
:1089F0001363C1BFD218414048404140B8BF5B42F9
:108A0000192B88BF704710F0004F40F4000020F091
:108A10007F4018BF404211F0004F41F4000121F0A7
:108A20007F4118BF494292EA030F3FD0A2F10102F1
:108A300041FA03FC10EB0C00C3F1200301FA03F12F
:108A400000F0004302D5494260EB4000B0F5000F52
:108A500013D3B0F1807F06D340084FEA310102F111
:108A60000102FE2A51D2B1F1004F40EBC25008BFC3
:108A700020F0010040EA03007047490040EB00008D
:108A8000013A28BFB0F5000FEDD2B0FA80FCACF18E
:108A9000080CB2EB0C0200FA0CF0AABF00EBC250BB
:108AA00052421843BCBFD0401843704792F0000FA9
:108AB00081F4000106BF80F400000132013BB5E7FC
:108AC0004FEA41037FEA226C18BF7FEA236C21D072
:108AD00092EA030F04D092F0000F08BF08467047D7
:108AE00090EA010F1CBF0020704712F07F4F04D1A5
:108AF000400028BF40F00040704712F100723CBFB8
:108B000000F50000704700F0004343F0FE4040F4E1
:108B1000000070477FEA226216BF08467FEA23639F
:108B20000146420206BF5FEA412390EA010F40F48A
:108B3000800070474FF0000304E000BF10F00043D6
:108B400048BF40425FEA000C08BF704743F09643BD
:108B500001464FF000001CE050EA010208BF7047D8
:108B60004FF000030AE000BF50EA010208BF70475F
:108B700011F0004302D5404261EB41015FEA010C74
:108B800002BF84460146002043F0B64308BFA3F16C
:108B90008053A3F50003BCFA8CF2083AA3EBC2534E
:108BA00010DB01FA02FC634400FA02FCC2F120026D
:108BB000BCF1004F20FA02F243EB020008BF20F0A4
:108BC0000100704702F1200201FA02FCC2F120020A
:108BD00050EA4C0021FA02F243EB020008BF20EAFF
:108BE000DC70704753B94AB9002908BF00281CBF80
:108BF0004FF0FF314FF0FF3000F00CB8ADF1080C32
:108C00006DE904CE2BF052FFDDF804E0DDE902232C
:108C100004B07047704700BF844641EA000313F078
:108C200003036DD1403A41D351F8043B40F8043B73
:108C300051F8043B40F8043B51F8043B40F8043B36
:108C400051F8043B40F8043B51F8043B40F8043B26
:108C500051F8043B40F8043B51F8043B40F8043B16
:108C600051F8043B40F8043B51F8043B40F8043B06
:108C700051F8043B40F8043B51F8043B40F8043BF6
:108C800051F8043B40F8043B51F8043B40F8043BE6
:108C900051F8043B40F8043B51F8043B40F8043BD6
:108CA00051F8043B40F8043B403ABDD2303211D376
:108CB00051F8043B40F8043B51F8043B40F8043BB6
:108CC00051F8043B40F8043B51F8043B40F8043BA6
:108CD000103AEDD20C3205D351F8043B40F8043B76
:108CE000043AF9D2043208D0D2071CBF11F8013B74
:108CF00000F8013B01D30B8803806046704700BF3A
:108D0000082A13D38B078DD010F003038AD0C3F148
:108D10000403D21ADB071CBF11F8013B00F8013B2A
:108D200080D331F8023B20F8023B7BE7043AD9D3E9
:108D3000013A11F8013B00F8013BF9D20B780370BE
:108D40004B7843708B78837060467047000000005A
:108D50000000000000000000000000000000000013
:108D60000000000000000000000000000000000003
:108D700000000000000000000000000000000000F3
:108D800030B490F800F020F007016FF0000C10F004
:108D9000070491F820F040F048804FF000046FF095
:108DA0000700D1E9002391F840F000F1080082FAB1
:108DB0004CF2A4FA8CF283FA4CF3A2FA8CF34BBB7C
:108DC000D1E9022382FA4CF200F10800A4FA8CF2F5
:108DD00083FA4CF3A2FA8CF3E3B9D1E9042382FAC3
:108DE0004CF200F10800A4FA8CF283FA4CF3A2FAD8
:108DF0008CF37BB9D1E9062301F1200182FA4CF210
:108E000000F10800A4FA8CF283FA4CF3A2FA8CF376
:108E1000002BC6D0002A04BF04301A4612BAB2FA98
:108E200082F200EBD20030BC7047D1E9002304F09D
:108E30000305C4F100004FEAC50514F0040F91F8D2
:108E400040F00CFA05F562EA05021CBF63EA05036F
:108E500062464FF00004AAE708B5064B1A783AB903
:108E6000054A1AB10548AFF30080024B01221A707F
:108E700008BD00BFC004002000000000C488030833
:108E800008B5034B1BB103490348AFF3008008BD8D
:108E900000000000C4040020C48803080F4BDFF862
:108EA0004CC010B553F820400D4BDCF800204FF4B7
:108EB0002E7E0EFB00300B4BD0F82CE0D0F8B40225
:108EC0009950134408495C60C3F808E0D8600B6807
:108ED00010320133CCF800200B6010BD4C7D002017
:108EE000B83B0020000000105C0500206405002055
:108EF00000B5244B24491B782448DFF8A4E0244A19
:108F00008B71A3F1020CBCF1020FDFF898C0C1F81D
:108F100000C0DFF894C00388DCF800C012681D4868
:108F2000CB81C1F818C0DEF800300068C8614FF08E
:108F3000020CA1F804C04FF4E02CC1F808C0C1E94C
:108F400004238CBF4FF0020C4FF0140C124B81F82D
:108F50000CC00A4615204FF0100E4FF0000C42F8DE
:108F6000200F81F807E003F1540081F80DC053F899
:108F7000041B42F8041F8342F9D1084B0022C3E9C5
:108F8000002200BDEC00002000000010440500207D
:108F90006005002050050020F0040020780000103B
:108FA0005C0500205452414354050020774B1A7849
:108FB000F2B170B5764C217882B0D1B1754B1E7884
:108FC0001D4608F007FCFFF7C7FD734A9FED737A53
:108FD000117807EE900A67EE877A0129FCEEE77AAE
:108FE00022D011F0FD0F60D02178297002B070BD41
:108FF000704708F0EFFB684A92F800C0BCF1010F1F
:1090000005D0634B634D1978297002B070BD019291
:10901000FFF7A2FD9FED617A5E4D5F4A07EE900A71
:1090200067EE877AFCEEE77A5D49097805292ED14B
:109030005749097859B35B48D0F800C040F6F7703B
:10904000844524D8584A17EE904A1068A042CCD8DC
:1090500017EE901A0120FFF721FF17EE901A00205B
:10906000FFF71CFF17EE901A0220FFF717FF474B80
:10907000474A1B7811784D484B4AC0ED007A023BB5
:10908000022B8CBF0223142323441360ADE7474B0C
:109090000192C3ED007AFFF72BFF3D4A1178019A48
:1090A00029700223137002B070BD1EB93C4B1B78AF
:1090B000052B02D0364B197897E73A4B3C491E6096
:1090C00080230B603B499FED3C6A0B603B493C4B66
:1090D00091ED007ADFED3B6AC3ED007A27EE067A68
:1090E000324B3149C3ED007AB4EEE67A0123F1EE5A
:1090F00010FAC1ED007A137044DCDFED337AF4EE40
:10910000C77AF1EE10FAD8BFF0EE477AFCEEE77AB4
:1091100017EE900A2D4B2E4A2E491080D3F8EC0200
:109120000860D3F8FC024860D3F800038860D3F8E5
:10913000C802C860D3F8CC020861D3F8D4024861F1
:10914000D3F8D802886103F2A4500068C86103F222
:10915000B4500068086203F5B7600068486203F520
:10916000B0600068886203F284500068C86203F24D
:109170008C5003F5B26300681B6808634B63FFF70C
:10918000B7FE97E74FF6FF70C4E700BFEC00002082
:10919000343000204D0500204F0500206F12833A27
:1091A000A87D00205C050020480500205005002017
:1091B000640500206005002000007A447000002053
:1091C0005405002000FF7F4700000000B83B00204E
:1091D00044050020F0040020154B1B7813B1154BFB
:1091E0001A6802B9704700B583B008F0F3FAFFF7C8
:1091F000B3FC9FED117A114A07EE900A67EE877A69
:10920000FCEEE77AC2ED007AFFF772FE094B0C48DC
:109210001B680C49009108331B0103600A4A502166
:10922000012011F0FFFE094B187003B000BD00BF14
:10923000EC0000205C0500206F12833A50050020EE
:10924000580500200000001000000C084C0500200C
:109250000B48027910B400230A4C802163F34102C9
:1092600021600271084C094A094821601370094CB9
:1092700009490A4A037023600B6010BC13607047F1
:10928000AC7D002060050020640500204F05002013
:10929000EC0400205C050020E0040020E404002031
:1092A000704700BF364A37483749D0F800C008B584
:1092B000137943F002031371344A0020012308603C
:1092C0001370BCF1000F1AD0314B324A03F1800009
:1092D00052F8041F43F8041B8342F9D12E4B2F4848
:1092E0002F49304A006808604FF0010E83F800E013
:1092F0004FEA0C1313602C4B80221A6008BD244ADD
:109300002A48802111F042FE214A294910688842EA
:109310004FF001030FD0802200211D482BF012FED8
:10932000204A1D481E490023136003700B601E4B2A
:1093300080221A6008BD92F804C0BCF1020FEAD185
:10934000D1791029E7D1516940F6F77001F1FF3E5C
:109350008645E0D8107A40F002001072154A16488F
:1093600013700D4A0E4B82F800C018600D4A0801B8
:1093700001F10803114910601B010B60BBE700BF3E
:10938000AC7D00205C050020DC040020EC04002003
:1093900068050020FCFFFF0F4E050020600500203F
:1093A000E8040020E4040020E004002000000C0891
:1093B000545241434C05002080000C085805002001
:1093C000054B187838B1054B054A1B6812681343E2
:1093D00014BF012000207047EC040020E0040020AE
:1093E000E4040020474B1B78002B7FD02DE9F04F81
:1093F000454B464F1D683A68A7B08246002D5CD0A9
:109400000DF1180942484946002301E0802B76D02F
:10941000013304780C709D4200F1010001F101015B
:10942000F4D12C46ED1A384B1D60002A4CD0CDF8F3
:109430000490DFF8F080374D374EA1441FE0D3F899
:1094400004E0D3F808C056F800B0DB68C9F80C3067
:10945000C9F800B0C9F804E0C9F808C0012900F152
:10946000100004F11004A2F1100203D1B0F5803F06
:1094700028BF80203A60286009F1100912B37F2CC0
:1094800020D898F800102868022900EB0603D6D1EE
:1094900002AA102111F07AFDDDE90202DDE90431B2
:1094A000C9F80000C9F80C10C9F80420C9F8083040
:1094B00028683A6898F80010D0E7A2B12C460DF160
:1094C0001809B4E7DDF80490E2B2144C4B46216869
:1094D00050461DF069FC0C4B22681B68396801324C
:1094E0000B43226003D027B0BDE8F08F70470C49D2
:1094F000044A13700A7963F341020A71F3E71C46C8
:1095000090E700BFEC040020E0040020E404002009
:1095100068050020E804002000000010DC040020A2
:10952000AC7D00204E050020144B154A53F8203026
:109530001268934220D2F7EE007A30EE270AF6EE58
:10954000007A20EE270ADFED0F7A0F4A20EE270A75
:109550003421BDEEC00A01FB032210EE103A1BB20B
:10956000B3F5FA6FA8BF4FF4FA63D269B3F57A7F07
:10957000B8BF4FF47A731360704700BF1C560308DE
:10958000000000200000FA4464740308124B134AE0
:1095900053F82030126893421CD2F7EE007A30EE76
:1095A000270ADFED0F7A0F4A20EE270A3421BDEE9D
:1095B000C00A01FB032210EE103A40F698011BB2DC
:1095C0008B42A8BF0B46D269B3F5487FB8BF4FF4B2
:1095D00048731360704700BF1C560308000000204A
:1095E00000007A44647403080F4B104A53F820308B
:1095F0001268934216D2DFED0E7A0E4A20EE270A49
:109600003421BDEEC00A01FB032210EE103A40F2F5
:10961000E7311BB28B42A8BF0B46D269012BB8BF02
:1096200001231360704700BF1C5603080000002090
:1096300000007A4464740308704700BF2DE9F84FB6
:109640002DED028BC24EDFF86093F27899F800306E
:10965000900740F1AC80002B00F0A980BD4ABE4BC2
:10966000D2ED007A93EDAE7A27EE877AFEEE006AAD
:10967000B4EEE67AF1EE10FAB6EE006A07D4B4EE74
:10968000C67AF1EE10FA00F3D281B1EE476A93ED9B
:10969000007AB24B27EE877AFEEE006AB4EEE67AE5
:1096A000F1EE10FA83ED006A00F1BB81B6EE006ABC
:1096B000B4EEC67AF1EE10FA01DCF1EE476AA84A80
:1096C000A84B92ED006AC3ED006A67EE867ABEEEA3
:1096D000007AF4EEC77AF1EE10FA08D4B6EE007A0A
:1096E000F4EEC77AF1EE10FAD8BFB0EE677A9E4B6F
:1096F0009E4900221A6081ED007A03F015FF9C4B11
:109700001B78002B00F0B080DFF8A082994CD8F8CD
:10971000003000202060002B00F08C819FED968AA5
:10972000DFF88CA2954F964D9AED001A07EB800357
:1097300005EB800BD3ED000A9BED000A01F090F9D8
:1097400099F800308BED000A002B40F054818D4BCE
:1097500020681B78052B00F03381022B00F030814C
:1097600005EB800383ED008AB0EE480A8300F278AF
:10977000120700F1DD80844B1B6898472068834BFB
:10978000D8F8002003EB800305EB8001D3ED007ACD
:1097900091ED007A013077EE877A9042C3ED007A3E
:1097A0002060C1D37A4A13680133136060E0794ABC
:1097B00092ED007AFEEE007AB4EEE77AF1EE10FA5E
:1097C00039D4F6EE007AB4EEE77AF1EE10FAC8BFBB
:1097D000B0EE677A6049614AD1EDAD6A82ED007AF8
:1097E000FEEE007AF4EEE76AF1EE10FA08D4F6EE37
:1097F000007AF4EEE76AF1EE10FAD8BFF0EE667A7E
:10980000654A584992ED007AC1ED007A13F0FD0FD8
:10981000FEEE007AB4EEE77A10D0F1EE10FA00F125
:109820000381F6EE006AB4EEE67AF1EE10FA11DC8E
:10983000F1EE477A0EE0B0EE677ACBE7F1EE10FA80
:1098400008D4F6EE007AB4EEE77AF1EE10FAD8BF5B
:10985000F0EE477A454BC3ED007A03F065FE444BCA
:109860001B78002B7FF450AF424CDFF84081434F10
:1098700004F0A4F803F01EFED8F800302360092B92
:1098800046D83F4D9FED458ADFF82881DFF828A1B3
:10989000DFF8289198ED001A07EB830205EB830BA4
:1098A000D2ED000A9BED000A01F0DAF88BED000A18
:1098B000F378226813F0080F02F1010325D15AF85A
:1098C0002200374905EB820CD9F800204FF0340E06
:1098D00090420EFB0011B7EE007A40F6980014D2C9
:1098E000DCED007AC96977EE877A67EE887AFDEE5B
:1098F000E77A17EE902A12B28242A8BF0246B2F56A
:10990000487FB8BF4FF448720A60092B2360C1D961
:109910001A4E244D0A2323600FCE0FC50FCE0FC55C
:1099200096E8030085E80300BDEC028BBDE8F88FE4
:10993000164A1344D3ED007A77EE807A0130C3EDF6
:10994000007AD8F8003020609842FFF4EDAE29E7A5
:10995000AC7D002010000020B83B00200406002051
:109960002841002000060020F8050020FC0500200A
:10997000B8060020E8050020000000005C0600207A
:1099800034060020A87D0020EC0500208806002079
:109990008406002024410020DC43002000007A449B
:1099A000647403080C060020758E0020040000205B
:1099B000B4060020B00600201C560308000000205A
:1099C0001D4B93ED000A05EB8003D3ED007AF4EE16
:1099D000C07AF1EE10FA4FEA800308D4B7EE000A1D
:1099E000F4EEC07AF1EE10FAD8BFB0EE670AEA18CA
:1099F00082ED000ABBE60FF0AFFB0346206843B1DF
:109A0000F378190709D405EB800393ED000A83006E
:109A1000EDE7B0EE480A8300E9E79FED080A83000E
:109A2000E5E7F6EE006A4AE6F6EE007A12E7B0EEF7
:109A3000666A2CE6024FB5E6E4380020000000001C
:109A40005C0600202DE9F047B249DFF81483CB789B
:109A5000B148B24F98F800203D68DFF8089323F032
:109A6000200382B0CB70AE4BAE491B78C35CAE48CE
:109A7000A2F10104B4FA84F4AB4200784FEA541422
:109A800028BF2B460B6089F80040002840F0BA80C0
:109A9000022A00F0698107EE903AB8EEE77AF7EE15
:109AA000006AC6EE877AA149A14E02EB8202033317
:109AB00056F8220033F003039A46C1ED007A9D491F
:109AC000086006EB82013ED0DFED9B7A9B4C9C4EFA
:109AD000C4ED007AC6ED007A002D40F07B81C4ED24
:109AE000017AC6ED017A3B680025022BA560B560BE
:109AF00000F21D830023E360F360BAF1040F20D06D
:109B00003B680025062B2561356100F241836561C4
:109B10007561BAF1060F14D93B680025082BA561C1
:109B2000B56100F2FE83E561F561BAF1080F08D96D
:109B30003B680025042B2562356200F2448465628F
:109B4000756299F80040002C40F0D4807D4C3A6852
:109B500054F82A309342C0F0CC830AF1010354F840
:109B6000232039688A42C0F0FE83BAF1080F0AF157
:109B7000020300F0BF8054F8232039688A42C0F005
:109B800009840AF1030354F8232039688A42C0F09B
:109B90003C840AF1040354F8232039688A42C0F057
:109BA0004D840AF1050354F8232039688A42C0F035
:109BB0005E84BAF1040F00F09D803B68082B00F230
:109BC00087843B68042B40F295805C4E5C4D5E4878
:109BD0004FF07C5440F2DC5345F2E472A821346229
:109BE0002C6212F0E1FC3B68052B40F28380574861
:109BF000746240F2DC5345F2E472A8216C6212F008
:109C0000D3FC77E04B4A52494C4C1160002B00F0DA
:109C1000F8804FEA83084A4E0193424600212046CD
:109C20002BF090F90021424630462BF08BF9019B36
:109C30000A2B5CD004EB0801B0444FF07C52092B96
:109C40000A60C8F8002003F1010150D004EB810044
:109C500006EB8101082B0A60026003F1020146D085
:109C600004EB810006EB8101072B0A60026003F11F
:109C700003013CD004EB810006EB81014FF07C52E4
:109C8000062B0A60026003F1040130D004EB81006E
:109C900006EB8101052B0A60026003F1050126D065
:109CA00004EB810006EB8101042B0A60026003F1E2
:109CB00006011CD004EB810006EB8101032B0A6036
:109CC000026003F1070112D004EB810006EB810171
:109CD000022B0A60026003F1080108D004EB810046
:109CE00006EB810102600A600BB962627262002DAC
:109CF00040F09C802822002116482BF023F9164BB7
:109D000001241C6004F06EFB144B1C7002B0BDE813
:109D1000F08700BFAC7D00204456030800000020FF
:109D2000F500002004000020758E002008060020A9
:109D3000F4550308EC050020000000003406002064
:109D40005C0600201C560308347503086875030878
:109D50008D9500088806002084060020B8060020A3
:109D60000C000020B90600202B4B2C4C2C4E2D4A09
:109D700008604FF07C581A60C4F80080C6F8008074
:109D8000002D40F03D82C4F80480C6F804804FF0F6
:109D90007C53A360B3604FF07C53E360F3604FF0FB
:109DA0007C53236133614FF07C53636173614FF0E7
:109DB0007C53A361B3614FF07C53E361F3613B6873
:109DC0004FF07C55042B2562356200F202826562F9
:109DD00075628FE7D1E9022313488988CDED017AB6
:109DE00012F0E2FB3B68DDED017A012BC4ED017A54
:109DF000C6ED017A00F28D81C4ED027AC6ED027AD9
:109E000078E6074E4FF07C5222606260A2603260BA
:109E10007260B26003212DE7EC05002034060020BB
:109E20005C0600203996000864740308D04E4FF495
:109E30007A7345F2E472A821304612F0B5FB3D6812
:109E4000012D67D94FF47A7345F2E472A82106F127
:109E5000340012F0A9FB3D68022D5BD94FF47A73F0
:109E600045F2E472A82106F1680012F09DFB3D68FE
:109E7000032D4FD94FF47A7345F2E472A82106F10D
:109E80009C0012F091FB3D68062D2DD94FF47A739A
:109E900045F2E472A82106F59C7012F085FB3D683E
:109EA000072D21D94FF47A7345F2E472A82106F503
:109EB000B67012F079FB3D68082D15D94FF47A730E
:109EC00045F2E472A82106F5D07012F06DFB3D68F2
:109ED000092D09D94FF47A7345F2E472A82106F5E9
:109EE000EA7012F061FB3D68042D13D9A1484FF4CC
:109EF0007A7345F2E472A82112F056FB3D68052DF5
:109F000008D99D484FF47A7345F2E472A82112F003
:109F10004BFB3D68002D3FF4EDAE94ED007ADFED94
:109F2000976AF169D4ED017AB7EE006A37EE067AE6
:109F300040F6980227EE267ABDEEC77A17EE103A61
:109F40001BB29342A8BF1346B3F5487FB8BF4FF486
:109F50004873012D0B603FF4CDAE77EE867A316DFC
:109F600094ED027A67EEA67AFDEEE77A17EE903A64
:109F70001BB29342A8BF1346B3F5487FB8BF4FF456
:109F80004873022D0B603FF4B5AE37EE067AD6F873
:109F90008410D4ED037A27EE267ABDEEC77A17EE49
:109FA000103A1BB29342A8BF1346B3F5487FB8BF1F
:109FB0004FF44873032D0B603FF49CAE77EE867A26
:109FC000D6F8B81094ED047A67EEA67AFDEEE77A3B
:109FD00017EE903A1BB29342A8BF1346B3F5487FE1
:109FE000B8BF4FF44873062D0B6040F28F8237EEF6
:109FF000067AD6F85411D4ED057A27EE267ABDEE0E
:10A00000C77A17EE103A1BB29342A8BF1346B3F5B6
:10A01000487FB8BF4FF44873072D0B6043D077EEED
:10A02000867AD6F8881194ED067A67EEA67AFDEE68
:10A03000E77A17EE903A1BB29342A8BF1346B3F5E6
:10A04000487FB8BF4FF44873082D0B602BD037EE14
:10A05000067AD6F8BC11D4ED077A27EE267ABDEE43
:10A06000C77A17EE103A1BB29342A8BF1346B3F556
:10A07000487FB8BF4FF44873092D0B6013D077EEBB
:10A08000867A67EEA67AFDEEE77A17EE903A1BB273
:10A090009342A8BF1346B3F5487FD6F8F021B8BF66
:10A0A0004FF448731360D4ED087ADFED346AD6F8C4
:10A0B000EC1094ED097AB7EE006A77EE867A40F6F6
:10A0C000980267EEA67AFDEEE77A17EE903A1BB299
:10A0D0009342A8BF1346B3F5487FB8BF4FF4487307
:10A0E000052D0B603FF406AE77EE067AD6F8201108
:10A0F00067EEA67AFDEEE77A17EE903A1BB293422E
:10A10000A8BF1346B3F5487FB8BF4FF448730B6040
:10A11000F0E598F800101A4B1A4801EB810103EBA7
:10A120008101D1E90223898812F03EFADBE498F834
:10A130000010134B144801EB810103EB8101D1E9BD
:10A140000223898812F030FA3B68E560032BF56042
:10A150007FF6D3AC98F80010094B0C4801EB810155
:10A1600003EB8101D1E90223898812F01DFAC4E4CE
:10A1700064740308347503086875030800007A44A2
:10A18000F455030898740308CC7403080075030899
:10A1900098F80010C14BC24801EB810103EB81012B
:10A1A000D1E90223898812F0FFF93B686561072B2A
:10A1B00075617FF6AEAC98F80010B84BB94801EB6A
:10A1C000810103EB8101D1E90223898812F0ECF9C6
:10A1D0009FE440F2DC53B44845F2E472A82112F047
:10A1E000E3F93B686562052B75627FF683ADAF4886
:10A1F00040F2DC5345F2E472A82112F0D5F979E57A
:10A2000040F2DC53AA4845F2E472A82112F0CCF9DE
:10A210003B68C4F80480012BC6F804807FF6B7AD14
:10A2200040F2DC53A34845F2E472A82112F0BCF9D5
:10A230003B68C4F80880022BC6F808807FF6ABADF7
:10A2400040F2DC539C4845F2E472A82112F0ACF9CC
:10A250003B68C4F80C80032BC6F80C807FF69FADDA
:10A2600040F2DC53954845F2E472A82112F09CF9C3
:10A270003B68C4F81080062BC6F810807FF693ADBB
:10A2800040F2DC53864845F2E472A82112F08CF9C2
:10A290003B68C4F81480072BC6F814807FF687AD9E
:10A2A00040F2DC537F4845F2E472A82112F07CF9B9
:10A2B0003B68C4F81880082BC6F818807FF67BAD81
:10A2C00040F2DC537E4845F2E472A82112F06CF9AA
:10A2D0003B68C4F81C80092BC6F81C807FF66FAD64
:10A2E000784840F2DC5345F2E472A82112F05CF9A0
:10A2F00065E57549754A6E4801EB8A0102EB8A02F1
:10A30000342505FB03004FF07C530B601360A8213C
:10A3100040F2DC5345F2E47212F046F90AF101030F
:10A320001DE498F800105D4B654801EB810103EBDB
:10A330008101D1E90223898812F036F93B68E56191
:10A34000092BF5617FF6F1AB98F80010534B5D488F
:10A3500001EB810103EB8101D1E90223898812F02D
:10A3600023F9FFF7E2BB5949574D05EB830501EB94
:10A3700083034F49342000FB02104FF07C522A60C7
:10A380001A60A82140F2DC5345F2E47212F00CF995
:10A39000FFF7EBBB4D494C4D05EB830501EB830308
:10A3A0004349342000FB02104FF07C521A602A60AF
:10A3B00040F2DC5345F2E472A82112F0F5F80AF1FC
:10A3C0000303FFF7E0BB98F80010344B364801EB6D
:10A3D000810103EB8101D1E90223898812F0E4F8BD
:10A3E0003B686562052B75627FF6ABAB98F8001091
:10A3F0002A4B2E4801EB810103EB8101D1E90223B5
:10A40000898812F0D1F8FFF79CBB30492E4D05EB3F
:10A41000830501EB83032649342000FB02104FF033
:10A420007C521A602A6040F2DC5345F2E472A821A3
:10A4300012F0BAF80AF10403FFF7ADBB2349224D2D
:10A4400005EB830501EB83031949342000FB02105F
:10A450004FF07C521A602A6040F2DC5345F2E472FD
:10A46000A82112F0A1F80AF10503FFF79CBB1749D8
:10A47000154C04EB830401EB83030D49342000FBEE
:10A4800002104FF07C5222601A60A82140F2DC5387
:10A4900045F2E47212F088F8FFF78BBBF45503081D
:10A4A0009C750308D07503083475030868750308A4
:10A4B0006474030898740308CC74030800750308D7
:10A4C0000476030838760308340600205C06002072
:10A4D000104E114D11484FF07C5440F2DC5345F2C0
:10A4E000E472A821B461AC6112F05EF83B68092BFC
:10A4F0007FF667AB0A48F46140F2DC5345F2E47240
:10A50000A821EC6112F050F8FFF75BBB042D3FF47B
:10A51000F1ABC8E5340600205C0600200476030891
:10A52000387603082DE9F0411E4C054607F052F934
:10A53000D4E9022390429941F8D30121284600F042
:10A54000B5FE01210746284600F0FCFE9F21384653
:10A5500000F0D8FF144E154B3446187006F105086C
:10A560000021384600F0CEFF04F8010B4445F7D136
:10A570002846002100F0E6FE33783279B17874780D
:10A58000F0781F2B08BF282C42EA01020CBF0123E0
:10A590000023012808BF002A0CBF0120002018401A
:10A5A000BDE8F081B02F002018000020BB0600207D
:10A5B00070B5194C054607F00DF9D4E90223904215
:10A5C0009941F8D30021284600F070FE012106468B
:10A5D000284600F0B7FE8021304600F093FF0F4C74
:10A5E00000212070304600F08DFF002120703046A1
:10A5F00000F088FF00212070304600F083FF00212A
:10A600002070284600F09EFEBDE870402322002303
:10A61000012007F01FBA00BFB02F0020BB060020AA
:10A62000F8B52A4C054607F0D5F8D4E90223904244
:10A630009941F8D30021284600F038FE0121074651
:10A64000284600F07FFE3D21384600F05BFF204E9B
:10A650002A213070384600F055FF8021307038468E
:10A6600000F050FFA6213070384600F04BFF00216B
:10A670003070284600F066FE48F6B802002301203C
:10A6800007F0E8F907F0A6F8D4E9022390429941CF
:10A69000F8D30121284600F009FE0121044628468E
:10A6A00000F050FED721204600F02CFF0021307032
:10A6B000204600F027FF074C00212070284600F0BC
:10A6C00041FE207800F00100F8BD00BFB02F00204F
:10A6D000BB060020BA06002010B50320FFF768FF74
:10A6E0000320FFF71FFF04460320FFF799FF2040D8
:10A6F000C0B210BD00000000534B1B68002B40F09F
:10A7000094802DE9F04F514B514E1F68514D85B04B
:10A710008DED030A0024504B06FB0737380CFDF77C
:10A72000C1FD47A3D3E90023FDF750FF02460B46C6
:10A73000FDF76CFC22462B46FDF766FC464B06FBFC
:10A7400007378246380C8B46FDF7ACFD3CA3D3E9B6
:10A750000023FDF73BFF02460B46FDF757FC224660
:10A760002B46FDF751FC5246CDE900015B465046B1
:10A770005946FDF701FE80468946DDE900010246A3
:10A780000B46FDF7F9FD02460B4640464946FDF7EC
:10A790003DFC22462B4680468946FEF773F800288A
:10A7A000B9D10022002340464946FEF74DF8002863
:10A7B000B1D1264B294C1F6049EC108B26F0F0F8E4
:10A7C000002251EC100B4FF04043FDF7D5FD4246FF
:10A7D0004B46FDF7FBFE41EC100B26F0A9F957ECB8
:10A7E000106BDDE9000132463B46FDF7C5FDFEF783
:10A7F0009BF8154D2060012432463B462C605046A4
:10A800005946FDF7B9FD044603980D46FDF75CFD7A
:10A8100002460B4620462946FDF7AEFDFEF784F8BA
:10A8200000EE100A05B0BDE8F08F0C4AD2ED007AB8
:10A83000054A002320EE270A13607047AFF300801B
:10A840000000E0FFFFFFEF41C806002024000020C9
:10A850000D6619000000F03F5FF36E3CC406002057
:10A8600010B5044607F07AF80023C4E90003C4E9F0
:10A87000023310BD10B5C160044607F06FF82060C8
:10A8800010BD00BF10B5044607F068F82368C01A71
:10A89000B0F57A7F8ABF0020B4F90C00E06010BDEB
:10A8A00003787BB343781C4A0133A2FB031202F402
:10A8B000FF7101EB52029B1A00EB8302437082EDA1
:10A8C000010A90ED017A90ED020AD0ED037AB4EE20
:10A8D000C07AF1EE10FA0EDDB4EEE77AF1EE10FA7E
:10A8E000D8BFF0EE477AB4EEE70AF1EE10FAD8BF1F
:10A8F000B0EE670A7047F0EE406AB0EE470AB0EE7D
:10A90000667AE9E7012380ED030A80ED020A80ED13
:10A91000010A0380704700BFABAAAAAAD0F80021A1
:10A92000012A34D090F80C31A3B93AB100F1800378
:10A9300003EB8201A3EC010A8B42FBD107EE902AC4
:10A94000F8EEE77A012367EE807A80F80C31C0EDEB
:10A95000447A7047D0F80831D0ED447A00EB830197
:10A96000D1ED206A81ED200A07EE102A77EEE67A13
:10A97000B8EE477A77EE807A013387EE870AB3FB29
:10A98000F2F102FB1133C0F80831C0ED447A704790
:10A990000B46202B10B51146044613D8013BB3FAE1
:10A9A00083F3C3F1200301209840042200F1FF3C0F
:10A9B0009A40C4E9400C2046FEF72EF9002384F8A3
:10A9C0000C3110BD80224FF01F0C2020F1E700BF9A
:10A9D00090F80C31D0F80011FBB100B5D0E941E29C
:10A9E000531C03EA0E0300EB820282ED200A9FED66
:10A9F000130AC0F8083179B1024600EB810CB2ECC1
:10AA0000017A00EB8301D1ED207A01339445A7EE62
:10AA1000270A0EEA0303F2D100BD39B100F1800329
:10AA200003EB8101A3EC010A9942FBD1002201232F
:10AA3000C0F8082180F80C31704700BF000000000A
:10AA4000DFED067A20EE277AF7EE006AC6EE877A07
:10AA500077EEA07A80EEA70A704700BFDB0FC940EF
:10AA600070EEC00AA0EE810A704700BFDFED0C7ADD
:10AA70009FED0C7A20EE270AF7EE006AC6EE807A88
:10AA80000023037027EE877AC6EEA75A86EE876A00
:10AA9000C0ED017AC0ED025A80ED036A704700BF35
:10AAA000DB0FC940F304353F0378F0EE407AD3B1B1
:10AAB000D0ED076A90ED027A30EE666A20EE877A72
:10AAC000F0EE667AE6EE077A90ED080A90ED037AEA
:10AAD000C0ED077A60EE870A37EEC07AA7EE200A4B
:10AAE00080ED080A704701230370C0ED077A80EDFE
:10AAF000080A7047B5EEC00AF1EE10FA02DC9FEDCD
:10AB0000050A7047F1EEC07AB7EE007A87EE270AA1
:10AB1000704700BF00000000254B00B5D3ED007A60
:10AB2000F4EE417AF1EE10FA87B0F0EE406A13D1FC
:10AB3000204A214B92ED000AD3ED007A20EEA77A4D
:10AB400060EE800AA6EE807AE6EEE70A80ED007AF3
:10AB5000C1ED000A07B000BD8DED040AB0EE410A58
:10AB6000CDE90201CDED050A8DED001A26F08EF932
:10AB70009DED001A104A8DED011AF0EE407AB0EE0C
:10AB8000410AC2ED007ACDED007A26F03FF9094A7C
:10AB90009DED011A064BDDED050ADDED046ADDEDE4
:10ABA000007A83ED001ADDE9020182ED000AC5E7B3
:10ABB000C006002020000020BC060020012AB0F9B9
:10ABC00000C0B1F900300FD0032A08D0022A04D106
:10ABD000CCF1000CA0F800C05B420B8070475B42D8
:10ABE000038063460B8070470380CCF100030B8029
:10ABF000704700BFB5EEC00AF1EE10FA08D5DFEDE0
:10AC00000C7A30EE270AB5EEC00AF1EE10FAF8D44D
:10AC1000DFED077AB4EEE70AF1EE10FA06DB30EE6C
:10AC2000670AB4EEE70AF1EE10FAF8DA704700BFEF
:10AC3000DB0FC940DFED107AB4EEE70AF1EE10FA4F
:10AC400009D59FED0E7A30EE070AB4EEE70AF1EE71
:10AC500010FAF8D47047DFED0A7AB4EEE70AF1EEA5
:10AC600010FA08DB9FED057A30EE470AB4EEE70AEA
:10AC7000F1EE10FAF8DA7047DB0F49C0DB0FC9407C
:10AC8000DB0F4940B4EEE00AF1EE10FA02DD30EEDF
:10AC9000600A7047F1EE607AF4EEC07AF1EE10FAD5
:10ACA00002DD30EE200A70479FED010A704700BFB9
:10ACB0000000000021EE211A70EE417AF4EEE07AF5
:10ACC000F1EE10FA0ADC31EE001AF4EEC10AF1EEF0
:10ACD00010FAD4BFF0EE607AF0EE417AB0EE670A77
:10ACE000704700BF60EE810AF1EE607AF4EEC07A40
:10ACF000F1EE10FA02DD30EE800A7047F4EEC00A81
:10AD0000F1EE10FA02D530EE600A70479FED010AAD
:10AD1000704700BF0000000000B52DED108BDFED87
:10AD2000EB4A8DB09E460023CDE90933CDE90633C9
:10AD3000CDE903338DED010A0B9308930593B0EE33
:10AD4000649AB0EE644AF0EE642AB0EE641AF0EE53
:10AD5000643A002900F0AB8101EB410CB0EE643A9B
:10AD6000B0EE642AF0EE641AF0EE640AF0EE649A33
:10AD7000B0EE64AAF0EE64AAB0EE64BAF0EE64BA83
:10AD800000EB8C0CB0EE640AB0EE648AF0EE648ADC
:10AD9000D0ED006A90ED017AD0ED027A26EEA65A47
:10ADA00067EE075A27EEA76A0C308445E6EE85AABF
:10ADB000E7EE250AA7EE863AE6EE878AA6EEA78A90
:10ADC000A7EE270AE5EE073AA5EE271AE6EEA52A32
:10ADD000A5EEA74AA6EE869AE7EE064A7BEEA6BA4D
:10ADE0003BEE05BA3AEE07AA79EEA59A71EEA71ADC
:10ADF00032EE062ACCD1CDED051A8DED082ACDED27
:10AE000003BA8DED06BACDED09AA8DED04AACDEDFC
:10AE1000079ACDED0A0A8DED0B3AB0EE6B2AF0EEF3
:10AE20004A1AB0EE4BDAF0EE69DA07EE901AF8EE55
:10AE3000677AB7EE007AC7EE276A0020DDED0A7A5E
:10AE4000DDED08CA66EEA33A26EE844AE6EEA73A9E
:10AE5000A6EE814AE6EEA43A26EE822A66EEA11A12
:10AE60009DED051A26EE8DDA66EEADDA26EE811A34
:10AE7000B0EE63BA22EE023A61EEA13A66EEACCAD7
:10AE80003DEE8DCA61EE010A33EE236A3CEE2CCA18
:10AE900036EE206AB8EE00EAB0EE4C7AA6EE0E7AF4
:10AEA00066EEA2BA37EE067AF6EE00EA36EE477A9A
:10AEB0002CEE2EFAF0EE477AE6EE0E7A9DED096A58
:10AEC000E6EE86BA9DED0B6AE6EE89BAA6EE264A54
:10AED00077EE8C7A27EE2E7A66EEA88A26EE888A9E
:10AEE00026EE800AF2EE00FAFAEE006A6BEEA6BADF
:10AEF0002BEE26BA64EE26AA67EEAF7A3FEE075A2B
:10AF0000B0EE416AF0EE615AF0EE426AF3EE002ACA
:10AF100019E024EE044A37EE497AA4EEA44A77EE0B
:10AF2000277AA5EE054ADDED014A27EE2E7A77EE67
:10AF30008C7AB4EEE44AF1EE10FA67EEAF7A3FEEA7
:10AF4000075A40F39E8068EE064A20EE064A36EE27
:10AF5000A6AAE8EEA54A013080B2A6EEA84AB1EE54
:10AF6000439A39EE479AAAEE423AB0EE63AAF1EE5E
:10AF7000633A73EEC73AE9EE024A36EE069AA3EE5A
:10AF8000A14AF0EE603AE1EE493A33EE0D3A73EE43
:10AF9000AC3AF1EE600A70EEC70AB0EE677AA3EE43
:10AFA000227AB0EE673AE3EEA27A75EE2D3A75EEAC
:10AFB000A59AE6EEC23AA9EEE1AAE1EE463A3AEEE9
:10AFC0002DAAA3EEA54AAAEE223AF0EE4B3AB5EE30
:10AFD000407AE4EE223AF1EE10FAB5EE403A08BFBC
:10AFE000B7EE007AF1EE10FA08BFB7EE003A83EE42
:10AFF000834A75EE0D3A3CEE855AE1EE463AA6EEEE
:10B00000C25AE5EEE13AA5EEE15AE3EEA64AF0EEC9
:10B010006B3AE4EEA23AF5EE407AC3EE874A20EEB0
:10B02000257AF0EE6A3AA6EE887AF1EE10FAA1EEF1
:10B03000207A08BFF7EE007AA5EE067A904275EE08
:10B04000C45AE7EE223A76EEE46A83EEA75A65EE3A
:10B05000A17A36EE456AE6EE827A26EEA63AE1EE6F
:10B06000067A65EEA53A66EE060A67EE8E7A33EE4C
:10B07000237A3CEE279A37EE207A39EE079AFFF4CE
:10B0800048AFB5EEC09AF1EE10FACEED006ACEED03
:10B09000015A8EED026A01D5B1EE499AF1EEC97AF4
:10B0A0001E9BC3ED007A0DB0BDEC108B00BD9DED75
:10B0B000032ADDED041A9DED06DADDED07DAB0EEC8
:10B0C000640AB0EE648AF0EE648AAEE60000000026
:10B0D000002946D09FED246A92ED004AD2ED014A44
:10B0E00092ED025A01EB4103F0EE465A00EB830366
:10B0F00090ED007AD0ED016A37EE447AF0EE657A91
:10B10000E7EE077A76EEE46A90ED027AE6EEA67A4A
:10B1100037EE457AE7EE077AB1EEE77A77EE407AD6
:10B12000F5EEC07AF1EE10FA0BD40C30834236EE15
:10B13000276ADDD107EE901AF8EE677A86EE270AC5
:10B140007047B1EE477A37EE407A0C30984236EECF
:10B15000076ACDD107EE901AF8EE677A86EE270AD5
:10B1600070479FED010A70470000000008B51A4BB8
:10B170001A4993F800C00022134660F30F23BCF174
:10B18000050F0A710B6022D0154B1B795A0613D498
:10B19000C3F380130B7006F0E1FB124B0021186023
:10B1A000282006F04BFC2920002106F047FCBDE8D2
:10B1B000084002200AF03ABF0B4B1B78002BE9D065
:10B1C00023F0BAFC0549012213468A70E2E7BDE884
:10B1D0000840342118F014BDA87D0020D0060020BE
:10B1E000AC7D0020CC060020718E002010B52D4CC7
:10B1F000237882B0002B35D0A378E27833BB32BB02
:10B20000019206F0ABFB284B1B6803F5922303F574
:10B210007873984231D901200AF008FF08200EF017
:10B2200037F823783BB123F0D3FC019A2270022037
:10B23000A2700AF00DFF60780022342118F0E0FCC3
:10B24000607802B0BDE8104019F0A6BCFAB10AF06F
:10B250005BFF6421292006F0F1FB607819F09CFC6B
:10B2600023780BB902B010BD002302202370A37015
:10B2700002B0BDE810400AF0EBBE292006F034FC15
:10B280000028EFD06421292006F0D8FBD8E723F06E
:10B29000C5FC08B9E278B2E7607823F02DFD0246DC
:10B2A000E070ACE7D0060020CC060020204B214AFD
:10B2B00030B500EB400503EB00101F4BC07803EBEB
:10B2C000401302EB85005C68D0E901C3002918BF78
:10B2D00063461A4908889BB2984283B002D120463F
:10B2E00003B030BD0B8020460021019325F0FAF910
:10B2F0002188104A019B12F82500114D21F03802D7
:10B30000134323802B88834208D02388288060B988
:10B3100023F003032380052006F09AFA204601213A
:10B3200025F0E0F9204603B030BD43F00303F1E718
:10B33000206E030860560308C06E0308D80600207C
:10B34000D606002008B50001094B1A5C3AB1083056
:10B35000184429B1BDE80840002110F09DBE08BD89
:10B36000012110F099FEBDE80840012006F070BAF6
:10B37000206E030810B5594C237813B1A378002B25
:10B3800048D1237C13B1A37C002B4FD194F82030FB
:10B390001BB194F82230002B53D194F830301BB1FC
:10B3A00094F83230002B57D194F840301BB194F808
:10B3B0004230002B5BD194F850301BB194F85230DE
:10B3C000002B5FD194F860301BB194F86230002BF1
:10B3D00063D194F870301BB194F87230002B67D1B0
:10B3E00094F880301BB194F88230002B6BD194F824
:10B3F000903013B194F8923003B910BD3848012150
:10B4000010F04AFE012006F023FABDE81040642047
:10B4100006F0AABA012104F1080010F03DFE012057
:10B4200006F016FA642006F09FFAAAE701212D48DB
:10B4300010F032FE012006F00BFA642006F094FAB8
:10B44000A4E70121284810F027FE012006F000FAA9
:10B45000642006F089FAA0E70121244810F01CFEC0
:10B46000012006F0F5F9642006F07EFA9CE7012140
:10B470001F4810F011FE012006F0EAF9642006F0E2
:10B4800073FA98E701211B4810F006FE012006F030
:10B49000DFF9642006F068FA94E70121164810F0FD
:10B4A000FBFD012006F0D4F9642006F05DFA90E778
:10B4B0000121124810F0F0FD012006F0C9F96420C6
:10B4C00006F052FA8CE701210D4810F0E5FD01204D
:10B4D00006F0BEF9642006F047FA88E7206E0308FC
:10B4E000B86E0308386E0308486E0308586E0308E8
:10B4F000686E0308786E0308886E0308986E030868
:10B50000A86E0308F8B505460F464FF480544FF671
:10B51000FF7603E0013CA4B2B44208D002212846E1
:10B5200025F0FAF80028F5D00CB92046F8BD3946C8
:10B53000284625F0E5F84FF480544FF6FF7603E0F7
:10B54000013CA4B2B44207D00121284625F0E4F81A
:10B550000028F5D0002CE8D0284625F0CDF8C0B260
:10B56000F8BD00BF2DE9F04F85B0074603936C4B43
:10B570000191D3F800A09346002800F08280694B27
:10B580001B78834200F0C680DFF8A0910121384685
:10B590004FEA0718FFF78AFE19F8083002930446AD
:10B5A0002BB108F108004844002110F075FD4FF45C
:10B5B00080564FF6FF7504E0013EB6B2AE4200F091
:10B5C0008F800221204625F0A7F80028F4D0002E15
:10B5D00040F0868009EB08035B78042B56D0BBF162
:10B5E000000F18D0039E0197B3444FF6FF754FF438
:10B5F000805703E0013FBFB2AF422BD0022120466B
:10B6000025F08AF80028F5D027BB384606F8010B4C
:10B610005E45ECD1019F029B43B108F1080048440C
:10B62000012110F039FD012006F012F93C4B186899
:10B63000504507D03C4B07EB470703EB87039A685D
:10B6400001329A60A0EB0A00B0FA80F0400905B020
:10B65000BDE8F08F0021204625F052F84FF48057C6
:10B6600003E0013FBFB2AF4207D00121204625F0E1
:10B6700053F80028F5D0002FC7D0204625F03CF81D
:10B68000C4E7019B43F0800301937DE74FF48056AC
:10B690004FF6FF7503E0013EB6B2AE4207D002217D
:10B6A000204625F039F80028F5D0002E97D000214B
:10B6B000204625F025F84FF480564FF6FF7503E03D
:10B6C000013EB6B2AE4207D00121204625F024F853
:10B6D0000028F5D0002E82D0204625F00DF87EE718
:10B6E0000199204625F00CF84FF480564FF6FF756F
:10B6F00003E0013EB6B2AE4208D00121204625F05B
:10B700000BF80028F5D0002E3FF464AF204624F05B
:10B71000F3FF5FE7012AB4D941F0C003019333E797
:10B72000DC060020F7000020A48E0020206E030815
:10B730002DE9F04FDFF840B1DFF840A185B0804639
:10B7400002938946DBF80030009300211746FFF78B
:10B75000ADFD4FEA081304461AF803200393019243
:10B760002AB103F108005044002110F095FC4FF479
:10B7700080564FF6FF7503E0013EB6B2AE4260D090
:10B780000221204624F0C8FF0028F5D0002E58D111
:10B79000EFB1029ECDF8088037444FF6FF7516F8DA
:10B7A000019B4FF4805805E008F1FF381FFA88F834
:10B7B000A8452CD00221204624F0AEFF0028F3D06B
:10B7C000B8F1000F23D1B742E9D1DDF80880019B21
:10B7D00043B1039808305044012110F05DFC012072
:10B7E00006F036F8DBF80000009B984207D0214BAA
:10B7F00008EB480803EB88039A6801329A60009BC3
:10B80000C01AB0FA80F0400905B0BDE8F08F494693
:10B81000204624F075FF4FF4805905E009F1FF3907
:10B820001FFA89F9A94508D00121204624F074FFA8
:10B830000028F3D0B9F1000FC5D0204624F05CFFFA
:10B84000C1E74946204624F05BFF4FF480564FF68F
:10B85000FF7503E0013EB6B2AE4207D0012120469B
:10B8600024F05AFF0028F5D0002E91D0204624F075
:10B8700043FF8DE7A48E0020DC060020206E030825
:10B8800010B53D4A3D4B3E49D3ED007A91ED000A9B
:10B890003C4B3D4C3D483E4993ED007A90ED006AAB
:10B8A0003C4B3D482DED048B92ED008A3B4A94EDD4
:10B8B000009AD2ED005A3A4AD1ED008AD2ED006AE0
:10B8C000384C3949394A78EE670A38EE278A30EE23
:10B8D000250AD3ED007A364B70EEC70A38EE478A58
:10B8E00039EE069A78EEE68A70EEA70A38EE678A95
:10B8F00030EE000A78EEA88A39EE099A84ED008AC3
:10B9000080ED009AC1ED008A82ED000AC3ED000AC5
:10B9100025F06EF9DFED277A274CF4EEE78AF1EE99
:10B9200010FA84ED010A24D49FED240AF4EEC08AB3
:10B93000F1EE10FAD8BFB0EE680A25F02DF9204BD1
:10B940001B78F1EE407A012BC4ED007A06D11D4B35
:10B95000D3ED007A77EEC07AC4ED007AF0EE480AB3
:10B96000B0EE490A25F044F9BDEC048B84ED020ADF
:10B9700010BDB0EE670AE0E7D00F0020C00F002036
:10B98000CC0F0020B40F0020BC0F0020C40F0020FB
:10B99000B80F0020AC0F0020A40F0020B00F002033
:10B9A000C80F0020A80F0020A00F00209C0F00202F
:10B9B000980F0020EFFF7FBF347D0020EFFF7F3F17
:10B9C000758E0020CC380020F8B5584C584F594E91
:10B9D000594D2DED068B94ED028AF6EE009A28EE75
:10B9E000298AB0EE480A25F011FAB0EE409AB0EE7E
:10B9F000480A25F04BFAD4ED018A68EEA98AB0EE28
:10BA0000408AB0EE680A25F001FAF0EE40AAB0EEE6
:10BA1000680A25F03BFA94ED00AA484C2AEE29AAC0
:10BA2000F0EE408AB0EE4A0A25F0F0F9F0EE409AC6
:10BA3000B0EE4A0A25F02AFA28EE2A5A28EE288A79
:10BA400020EE456A69EE288A68EE005AA8EEA96AD7
:10BA500029EE2A9A66EE066AE9EE295A68EE297AF4
:10BA6000E5EEA56AE9EE007A20EE687AB0EE660AA5
:10BA7000A5EE297AA7EEA70AC7ED005AA7EE070A96
:10BA800084ED007A86ED006AC5ED007AFFF732F8A2
:10BA900094ED006AD7ED006A96ED007AD5ED007A54
:10BAA00027482849284A294B60EE266A20EE077A63
:10BAB00060EE277A20EE060ABDEC068B66EEA61A2B
:10BAC00066EEA72A26EE803A67EE073AC7ED006ACF
:10BAD00084ED000AC0ED001AC1ED002A82ED003AA3
:10BAE000C3ED003A26EE872A27EE274A67EE004A82
:10BAF00027EEA75A67EE805A20EE006A144F154CC5
:10BB000015481649164A174B86ED007AC5ED007A9E
:10BB100087ED002A84ED004AC0ED004A81ED005A0D
:10BB2000C2ED005A83ED006AF8BD00BF347D0020ED
:10BB3000E00F0020DC0F0020D80F0020D40F0020E1
:10BB4000D00F0020C80F0020C40F0020C00F00201D
:10BB5000CC0F0020BC0F0020B80F0020B40F002035
:10BB6000B00F0020AC0F0020394B3A4AD3ED004A09
:10BB7000DFF8FCC0384BD2ED005A93ED002A9CED63
:10BB8000006A91ED013A354A354BD1ED022A74EE47
:10BB9000866A75EEC27AB7EE005AB0EE004AF0EE51
:10BBA000453AE6EEC43A37EEA77AD2ED006AD1ED17
:10BBB000007A2C4A27EE037A93ED003A2A4BA3EE43
:10BBC000A77A76EE837AD3ED003A284B77EEA77A00
:10BBD00074EEA34AA7EEA27A76EE237AB0EE456A17
:10BBE000A7EEC46AD3ED002AD2ED007A80ED007A88
:10BBF000D1ED011A35EE827A26EE216A91ED002A06
:10BC000037EE077A77EEE25AA7EE026A75EEA55A8A
:10BC100091ED027AA5EE876A77EEA27A80ED016A4D
:10BC200036EEC37A91ED016AD1ED006A77EEA77A1C
:10BC300037EE077A67EE867AA4EEC45AE7EE267AE4
:10BC400091ED027AE5EE077AC0ED027A704700BF07
:10BC5000B40F0020BC0F0020C40F0020B80F00203C
:10BC6000C80F0020B00F0020C00F0020CC0F002014
:10BC7000AC0F00200A480B4990ED007A0A4A0B4BA2
:10BC8000D1ED007AD2ED006A67EEC77A93ED007AC3
:10BC9000E6EE877A77EEA77A27EE800A704700BF34
:10BCA000DC0F0020D40F0020E00F0020D80F002070
:10BCB000094A0A4BD2ED007A93ED007A084B77EEF1
:10BCC000C77A93ED007A074B77EEC77A93ED000AB7
:10BCD00037EE800A704700BFD00F0020C00F002051
:10BCE000B40F0020AC0F002008B50E4A0E4B52785E
:10BCF0009FED0E0A520783ED010A83ED000A05D578
:10BD000083ED020ABDE80840FFF75EBE22F022FD87
:10BD1000054B074A82ED000A83ED020ABDE80840A0
:10BD2000FFF752BEAC7D0020347D002000000000F3
:10BD300058BD00202DE9F04F854B864C93ED027ADB
:10BD4000D4ED007ADFF858B2DFF85892824F834E74
:10BD5000DFF85482DFF854A2E7EE007A2DED028B73
:10BD6000B0EE670A83B0C4ED007AFEF743FF99EDA9
:10BD7000007ADBED007AD6ED000A84ED000A77EE5A
:10BD8000877A97ED007A764C77EEC77AB0EE408AE4
:10BD900077EEE00A98ED000ADAED007A30EE270A35
:10BDA00030EE000A24F024FF6E4B83ED020A627A23
:10BDB000D209F0EE407A1CD16B4B6C4D93ED000A2A
:10BDC00037EEC00AFEF716FF694BD5ED007A83ED1A
:10BDD000000A30EE670AFEF70DFF637A654A23F02A
:10BDE000800382ED000A637203B0BDEC028BBDE8F4
:10BDF000F08F6278530740F19F805F4A5B4D92ED70
:10BE0000250A95ED007A30EE070A30EE670AFEF754
:10BE1000F1FE9FED5A7A20EE078AF6EE007A28EEC0
:10BE2000278AB0EE480A24F0F1FF8DED010AB0EE4A
:10BE3000480A25F02BF8524A5249D2ED006A9DED8E
:10BE4000015A91ED007A504B5048D3ED007A66EEDE
:10BE5000805A20EE676AE7EE055A20EE477AC1ED78
:10BE6000005AA6EE857A65EEA56AD0ED005A82EDFD
:10BE7000007AA5EE856A67EE857AE6EE066AE5EE5B
:10BE8000807AB0EE660AA7EE070A80ED006AA7EE98
:10BE9000A70AC3ED007AFEF72DFE324B3B48D3EDE7
:10BEA000027A374A384B90ED006A3649D3ED005A92
:10BEB00092ED007AD1ED006A20EE066A60EE266A05
:10BEC00020EE077A20EE250A66EE065A26EE265A5E
:10BED00080ED006ACBED005A66EE075A26EE006A46
:10BEE00083ED000A8AED006A26EEA66A82ED007AEA
:10BEF00066EE874A264B89ED006A27EE076A27EE31
:10BF0000007A244A83ED007AC1ED006A164BC8ED31
:10BF1000004A66EE806A20EE000AC2ED006A86EDF5
:10BF2000000A1D4A93ED000A1C4B87ED006A82ED62
:10BF3000005AC3ED005A43E738EE400AFEF75AFEB6
:10BF4000094A084B094DD3ED027A82ED000A37E722
:10BF50004C7D0020700F0020B40F0020AC0F00209B
:10BF6000AC7D0020347D0020E006002064BD002070
:10BF70005CBD002054BD0020B0A800200AD7A33C1F
:10BF8000D80F0020DC0F0020D40F0020E00F00208D
:10BF9000B00F0020B80F0020CC0F0020C80F0020E9
:10BFA000D00F0020C00F0020BC0F0020C40F0020C5
:10BFB00062EE026A2DE9F04FE1EEA16ACD4BDFF8A7
:10BFC000A8B3DFEDCD5A93ED006A9BED007ADFF860
:10BFD0009CA3CA4BDFF89883C94CCA4ECA4DCB4FBD
:10BFE000DFF89093E2EEA26A2DED108BF1EEE6EA17
:10BFF00085B0F7EE007AEEEEE57A9AED008AD8ED9C
:10C0000000CAD4ED00DACDED013A27EE07DAF0EE02
:10C01000408A27EE860A83ED00DA27EE08AABC4B99
:10C020008DED024A20EE000AFEEE007A83ED00AAB2
:10C0300027EE2CEA20EE270AB64BC9ED00EA68EE9F
:10C04000087A83ED00EAC6ED007AB34B68EE2C7AED
:10C0500028EE2D8AC5ED007A83ED008A6CEEAC7A6D
:10C06000AE4B6CEEADCAC3ED007AAD4B27EE2D7A28
:10C07000C3ED00CA6DEEADDAAA4B87ED007AB6EEDD
:10C0800000FAF0EE609A64EE8FAAB0EE42BAF0EEDB
:10C0900061BAB0EE62CAB0EE419AF0EE43FAC3ED77
:10C0A00000DA24F0A7FDF5EEC0EAF1EE10FAF0EEAA
:10C0B000400A40F3E4809C4B93ED027AC7EE2E7A5F
:10C0C0009FED9A7AF4EEC77AF1EE10FA40F1C8804B
:10C0D000974B9FED981A93ED000AFEF7C1FC944B25
:10C0E00099ED007A83ED000A934B1A78934B052A59
:10C0F000D3ED006A924BF2EE0E7A08BFF0EE407A72
:10C1000083ED000A67EEA67A8E4BB5EEC07AC3EDDA
:10C11000007A8D4B0021F1EE10FA197040F3AA80DD
:10C12000B7EE006AC6EE076A88493DEE2DDAF0EEFA
:10C13000005ABFEE006AADEE256A2BEE26BA38EE45
:10C140004E8A3AEE2CAA6BEEA6BA2CEE26CA38EE30
:10C15000088A3AEE0AAA6BEE466A2CEE487AEAEEB4
:10C160000C6A2BEECAAAA6EE2B7AA8EE0BAAE7EE73
:10C17000A68AE7EE879AA7EE8A9AC1ED006A81ED5A
:10C18000017A81ED02AA01211970714B197AC90750
:10C1900009D55978480706D4D978C1F340008907F2
:10C1A00001D4052A7FD098ED007A9BED006ADAED84
:10C1B000006A94ED004A29EE2A9A68EEAA8A69EE8E
:10C1C000AA9A67EE094A29EEC75AE6EE284AA6EE71
:10C1D000E85AE4EE694A69EE665AA4EE495AE6EE78
:10C1E000295A66EEA97A76EEA46AE6EE097AE4EEBA
:10C1F000285A36EE056A26EEA60AE7EE687AA6EE1B
:10C20000060A37EE257A77EE847AA7EE070A8BEDD9
:10C21000006AA7EEA70ACAED006A88ED007AC4EDAD
:10C22000007AFEF767FC9BED006ADAED006A98ED94
:10C23000007AD4ED007A26EE006A66EE806A27EE78
:10C24000007A67EE807A8BED006ACAED006A88EDAD
:10C25000007AC4ED007A05B0BDEC108BBDE8F08F1C
:10C260009FED3C7AF4EEC77AF1EE10FA07D560EE56
:10C270000F0A2DE738490B8833B1354B86E7DFEDE0
:10C28000377A60EEA70A23E7DFF8ECC0304BBCF842
:10C2900000000130ACF80000587940F0800058717F
:10C2A0000220088072E7DDED017A1A7A27EEA70AEC
:10C2B000DDED027AAFEEAF0A60F300021A72A7EE6C
:10C2C000A70AB4EE400AF1EE10FA0DD19FED248AD0
:10C2D000B4EEC80AF1EE10FA06DC9FED22BAB4EE15
:10C2E000CB0AF1EE10FA49DC5A7842F004025A7097
:10C2F00059E700BF440000207CD6D03DD00F00207D
:10C30000D40F0020C00F0020BC0F0020C40F00205D
:10C31000CC0F0020C80F0020B80F0020B40F002061
:10C32000B00F0020AC0F0020587D0020333333BF06
:10C3300028000020CDCCCC3DA87D00204800002066
:10C34000940F0020F80F0020600F0020640F0020E1
:10C35000AC7D00209A9999BE740F00200000000067
:10C36000CAF24971BD378635E00F0020DC0F00208E
:10C37000D80F0020F40F0020900F00200393FEF749
:10C38000B9FB5F4B9DED017AD3ED007A5D4BD6EDA5
:10C39000006A93ED006A97ED004AD5ED005A5A4BBA
:10C3A00067EE00BA9DED027A93ED005A574B27EEE7
:10C3B00000AAB6EE007A77EE666A37EE467A2FEE7E
:10C3C00080CA37EE677A36EEE70A75EEC47AD3EDA7
:10C3D000004A4F4B67EEAB7A75EE845AE7EE0C7A63
:10C3E00020EE2B0A93ED007A4A4BA5EE8C0AD3ED92
:10C3F000005A039B37EE654A75EE243AA4EE0A0A0A
:10C40000E3EE8A7A30EE000A77EEA77A20EE000A91
:10C41000A7EEA70AB4EE400AF1EE10FA7FF464AF7B
:10C42000B4EEC80AF1EE10FA3FF75EAFB4EECB0AF5
:10C43000F1EE10FA7FF758AF37EE258A35EE645AE1
:10C4400028EE2B8A76EEC66AA5EE0C8AA6EE8A8ABC
:10C45000FEF750FB2B4BD6ED007A93ED006A2A4B8A
:10C4600095ED005AD3ED005A284BD3ED004A244BEA
:10C4700093ED004A274BD3ED006A254B93ED007AEC
:10C48000254B76EE876AB6EE007A77EE677A38EE5D
:10C49000088A37EE467A77EEC67A35EEE46A37EEEA
:10C4A000447A26EE086A75EEA45AA7EE006A97ED64
:10C4B000007A67EE887A35EE477A66EE886AE5EEAE
:10C4C000807AE7EE006A36EE066A37EEA77A76EEF5
:10C4D000A66A27EE4C5A66EE6B5A66EECA7AAAEE48
:10C4E000065AB0EE656AEBEE877AACEE266A93EDFB
:10C4F000007AE7EE878AE7EE059AA7EE069A52E6FB
:10C50000AC0F0020B40F0020B80F0020C80F00208F
:10C51000B00F0020CC0F0020F00F00202DE9F047D5
:10C52000AF48B04FD0ED007ADFF8E4C2DFF8E48224
:10C53000BCF800302DED028BF4EE677A0022F1EEAC
:10C5400010FA98F800503A8007D19FEDA77AF4EEE0
:10C55000C77AF1EE10FA40F3FE80A44A1678002E56
:10C5600040F0F6800022A24C0260617941F0800127
:10C570000133012261714FF0000E9E49D1ED007A26
:10C58000F4EE677AF1EE10FA0ED19FED977AF4EEA1
:10C59000C77AF1EE10FA07DC9FED977AF4EEC77ACE
:10C5A000F1EE10FA40F11481002D40F0ED800022F0
:10C5B0008F4C0A60627942F08002627101334FF061
:10C5C000000901220424D0ED017AF4EE677AF1EE3D
:10C5D00010FA0ED19FED847AF4EEC77AF1EE10FADC
:10C5E00007DC9FED857AF4EEC77AF1EE10FA40F1A0
:10C5F000E880002E40F0C5800022DFF8F4A1426000
:10C600009AF8054044F080048AF80540013301227D
:10C610000324D1ED017AF4EE677AF1EE10FA0ED12F
:10C620009FED717AF4EEC77AF1EE10FA07DC9FED18
:10C63000727AF4EEC77AF1EE10FA40F1BB80002D69
:10C6400040F09C800022DFF8A8A14A609AF80540DB
:10C6500044F080048AF80540013301220424D0ED1F
:10C66000027AF4EE677AF1EE10FA0ED19FED5E7A5F
:10C67000F4EEC77AF1EE10FA07DC9FED5F7AF4EE84
:10C68000C77AF1EE10FA40F18E80002E74D05B4A2A
:10C690009268574C8260607940F08000607101338D
:10C6A00001220324D1ED027AF4EE677AF1EE10FA5A
:10C6B0000DD19FED4D7AF4EEC77AF1EE10FA06DC5B
:10C6C0009FED4D7AF4EEC77AF1EE10FA62D5002DA7
:10C6D00050D04B4A92688A6045494A7942F08002BC
:10C6E00001334A71B9F1000F51D10424ACF8003084
:10C6F0003C80BEF1000F01D03C4B1E70414B1B78BB
:10C70000012B21D03B4C404F354E404DB0EE408A7E
:10C7100004F10C08384694ED000AF0EE480AFEF7E2
:10C72000C3F9F0EE407A284696ED000AE4EC017A6F
:10C73000F0EE480AFEF7B8F9444507F59A77A6ECFB
:10C74000010A05F59A75E5D1BDEC028BBDE8F087CD
:10C750002A4A126807E79FED287AF4EEC77AF1EECD
:10C7600010FA3FF5FAAE25494FF0010EC1ED007AFF
:10C77000764602E70022AEE700228AE7204A5268A6
:10C7800061E71E4A526838E71D4A126810E788F8C8
:10C790000050AAE71A49C1ED027A012188F8001079
:10C7A000002AA6D0A2E715484FF0010EC0ED027A8C
:10C7B000764677E7124D4FF00109C5ED017A4D46F7
:10C7C0004DE70E4E4FF0010EC6ED017A764620E79A
:10C7D0000B4C0125C4ED007AA9460324F3E600BF03
:10C7E0004C7D0020740F0020CAF24971770F0020A1
:10C7F000AC7D0020587D0020CAF249F1840F002052
:10C80000780F00208C7D0020B40B00201808002039
:10C81000900F0020760F002000B5704B5A79D1069A
:10C8200083B02DD55A78520740F1BA801A7A9FED1D
:10C830006C4A22F00102F0EE443AB0EE443A1A7229
:10C84000684A694992ED021AD1ED022A91ED002A57
:10C85000D1ED011AD2ED000A8DED010AF0EE404A49
:10C8600092ED010AFFF7A4FBFFF70AF85E495F4863
:10C87000FFF77AF95E4A594B1278002A40F09D8002
:10C880005C4AD2ED007AF4EE677AF1EE10FA06D146
:10C890009FED597AF4EEC77AF1EE10FA0CDD5748A5
:10C8A0005A79018842F0800201315A7101800123D6
:10C8B000534A138003B000BDDFED526AF4EEE67A0E
:10C8C000F1EE10FAEBD4504AD2ED007AF4EE677A2A
:10C8D000F1EE10FAE3D1F4EEC77AF1EE10FADEDCF5
:10C8E000F4EEE67AF1EE10FAD9D4484AD2ED007AA5
:10C8F000F4EE677AF1EE10FAD1D1F4EEC77AF1EEE8
:10C9000010FACCDCF4EEE67AF1EE10FAC7D4404A25
:10C91000D2ED007AF4EE677AF1EE10FABFD1F4EEC0
:10C92000C77AF1EE10FABADCF4EEE67AF1EE10FA1C
:10C93000B5D4384AD2ED017AF4EE677AF1EE10FA06
:10C94000ADD1F4EEC77AF1EE10FAA8DCF4EEE67A97
:10C95000F1EE10FAA3D4D2ED007AF4EE677AF1EE9C
:10C9600010FA9CD1F4EEC77AF1EE10FA97DCF4EEEF
:10C97000E67AF1EE10FA92D4D2ED027AF4EE677A0A
:10C98000F1EE10FA8BD1F4EEC77AF1EE10FA86DCF4
:10C99000F4EEE67AF1EE10FA81D41F4B1B8887E79C
:10C9A0001E4A1278002A3FF441AF1D4A92ED003A28
:10C9B000D2ED013A92ED024A42E71A4A1A499DED38
:10C9C000012AD1ED001A92ED021AD2ED010A92ED80
:10C9D000000A0BF021FD014B52E700BFAC7D0020A7
:10C9E000000000004C7D0020587D0020E40F002056
:10C9F000600F0020E00F0020CAF24971900F002064
:10CA0000920F0020CAF249F1DC0F0020D80F00205D
:10CA1000D40F0020347D0020740F0020718E002080
:10CA200048BD0020640F0020F40F00202DE9F047DE
:10CA3000414C424FD4ED000A97ED000ADFF83C91DB
:10CA400086B0FDF7FDFF3E4A3E4BD4ED000AF0EE06
:10CA5000407A92ED000AC3ED007AFDF7F1FF3A4A01
:10CA60003A49107809783A4B3A4A33F8103032F89C
:10CA70001120394907EE902A06EE903A0B78374A92
:10CA8000B0EE407AF8EE677AB8EE660A012B82EDD6
:10CA9000007A89ED000AC7ED007A1ED0304C314E85
:10CAA000314DDFF8DC8004F5677A2046FDF7DEFFC4
:10CAB00097ED000A3046FDF7D9FF04F59A7498ED1A
:10CAC000000A2846FDF7D2FF544514D099ED000A1C
:10CAD00006F59A7605F52E75E7E7234CDFF8A0807A
:10CAE00004F62805204698ED000A04F52E74FDF79B
:10CAF000BDFFAC42F6D11D4C04F628051C4E0FCEEE
:10CB0000EC46ACE80F0096E803006A468CE80300A8
:10CB10002046062104F52E74FDF73AFFA542EDD11B
:10CB2000144B15480022B6EE000A1A7006B0BDE894
:10CB3000F047FDF79BBF00BFA47D00203C00002014
:10CB400034000020B4060020C0000020C1000020F6
:10CB5000305F0308405F03088C7D0020B006002092
:10CB6000B40B002018080020303D00201C3C0020A1
:10CB7000EC500308500F0020E40600204000002085
:10CB80002C00002091ED016AD2ED017AD1ED006A0E
:10CB900092ED007AD1ED025A67EEC67A92ED026A02
:10CBA000E6EE877AD1ED036A92ED037AE5EEC67A76
:10CBB000E6EEC77AC0ED007A92ED006AD1ED017A17
:10CBC000D1ED006A92ED017AD1ED025A67EE867AD4
:10CBD00092ED036AE6EE877AD1ED036A92ED027A6E
:10CBE000E5EE867AE6EEC77AC0ED017A91ED016A4C
:10CBF000D2ED037AD1ED006A92ED027AD1ED025ABC
:10CC000067EEC67A92ED006AE6EE877AD1ED036AA6
:10CC100092ED017AE5EE867AE6EE877AC0ED027A49
:10CC2000D1ED017A92ED026AD1ED006A92ED037ABC
:10CC3000D1ED025A67EE867A92ED016AE6EE877AC6
:10CC4000D1ED036A92ED007AE5EEC67AE6EE877AD8
:10CC5000C0ED037A704700BF344B91ED017AD3EDFC
:10CC6000007A334BD1ED006AD3ED004A314B27EE09
:10CC7000877A93ED005A304BA4EEA67AD1ED026A82
:10CC8000D3ED005AA5EE267AD1ED036AA5EEA67A79
:10CC900080ED007A91ED006AD1ED016A91ED034AD1
:10CCA00027EEC66AB5EEC07AA4EEA66AD1ED026A96
:10CCB000A5EE446AF1EE10FAA5EEA66A80ED016ACF
:10CCC000D1ED036A91ED024AD1ED003A67EEA66A12
:10CCD000E4EE846A91ED014AE5EE636AE5EEC46A2A
:10CCE000C0ED026A91ED024AD1ED033A67EEC47AD3
:10CCF00091ED014AE4EEA37AD1ED004AE5EE047A23
:10CD0000E5EEE47AC0ED037A0FD5B1EE477AB1EEE5
:10CD1000466AF1EE666AF1EE677A80ED007A80EDA0
:10CD2000016AC0ED026AC0ED037A7047DC0F002093
:10CD3000E00F0020D80F0020D40F002010B52DEDFB
:10CD4000068BF6EE009A21EE298AF0EE408AB0EECC
:10CD5000480A0446B0EE60AA24F058F8B0EE409AB3
:10CD6000B0EE480A24F092F868EEA98AB0EE408A44
:10CD7000B0EE680A24F04AF8F0EE40AAB0EE680A75
:10CD800024F084F82AEE29AAF0EE408AB0EE4A0A8E
:10CD900024F03CF8F0EE409AB0EE4A0A24F076F81F
:10CDA00028EE2A5A28EE288A20EE456A69EE288A5B
:10CDB00068EE005AA8EEA96A29EE2A9A66EE066A7B
:10CDC000E9EE295A68EE297AE5EEA56AE9EE007ADD
:10CDD00020EE687AB0EE660AA5EE297AA7EEA70AD9
:10CDE00084ED016AA7EE070AC4ED027A84ED037AA6
:10CDF000C4ED005AFDF77EFEBDEC068B94ED006A93
:10CE0000D4ED016A94ED027AD4ED037A26EE006A3D
:10CE100066EE806A27EE007A67EE807A84ED006A1B
:10CE2000C4ED016A84ED027AC4ED037A10BD00BF3F
:10CE3000204901EB8013D3ED087AF5EE407A002209
:10CE40004FF0000CF1EE10FA1A615A61C3F82CC0D1
:10CE500083F830C05A639A6383F83CC0C3ED007A0C
:10CE6000C3ED037A5A609A6008D4B1EEE77A01EB19
:10CE7000801183ED097A81ED0A7A704700B5B0EE32
:10CE8000670A85B0CDE90230CDED017A23F096FF37
:10CE9000029BB0EE407A9DED010A83ED097A23F002
:10CEA0008DFF0398034901EB801181ED0A0A05B05B
:10CEB00000BD00BF00100020F0B5384C384D394F90
:10CEC000394EA1B001202566A765E665FFF7B0FFE2
:10CED0000220C4F8A050C4F89870C4F89C60FFF712
:10CEE000A7FF324B324D3348C4F8C05000211970AF
:10CEF0006A4680210EF04AF82F4B009A9A424BD195
:10CF0000DDED0A6A9DED0B7ADDED055A9DED066AB1
:10CF1000089A039B04980999DDED0F7A226166EE69
:10CF2000A64A0D9A616127EE075A65EEA53A26EEEC
:10CF3000064A07992365C4F8902002230E9A60657B
:10CF40000C98C4F89420C4ED096A119A84ED0A7A09
:10CF5000C4ED195AE06284ED1A6AE166C4ED103A34
:10CF600084ED134A84F87030C4ED004A84ED035A0E
:10CF700084F83030C4ED297A9DED107AC4F8AC20E5
:10CF800067EEA77A67EE076A84ED2A7AC4ED207A05
:10CF9000C4ED236A84F8B03021B0F0BD0010002049
:10CFA000CDCCCC3D95BFD633CD024C35FC0F002007
:10CFB0006F12033B00000C084944454ED54AD64B3E
:10CFC000127883ED300A052A00D07047D34A1278D0
:10CFD000032AFAD010B5D248D24A93F87C100068E0
:10CFE000D2ED017A84B0002900F0A08093ED1D7A83
:10CFF000B5EEC07AF1EE10FA00F1BC81DFEDCA6A3D
:10D00000B4EEE67AF1EE10FACCBF0121002100293E
:10D0100000F08C80D3ED1E6A37EEE66AB5EEC06A8A
:10D02000F1EE10FA00F19C81DFEDC05AB4EEE56A32
:10D03000F1EE10FACCBF01210021002976D0D3ED0A
:10D04000135AD3ED111A93ED122A93ED101AD3ED62
:10D05000170A93ED154AD3ED143A25EE873A61EE9F
:10D06000872AA2EE263AE1EE262A23EE075A24EE7C
:10D07000076AA2EEA65AA3EEA66A35EE205A37EE4C
:10D08000C66A82EE850AC3EE052AB7EE003AB7EE0D
:10D09000005AA0EE663AA2EEC75A20EE077AE0EEFA
:10D0A000063A62EEA66A22EE470AA2EE864AA3EE8E
:10D0B000010A26EEE16AD3ED160AC3ED143AA5EE95
:10D0C000856A66EEC16A65EEC75A30EE200AE2EE66
:10D0D000056AE3EE215A36EE206AB5EE400AF1EE1B
:10D0E00010FAC3ED126A83ED154A58BFF1EEC06A1B
:10D0F00083ED100AC3ED115A83ED136A00F17B81B1
:10D10000B5EE406AF1EE10FAC3ED196A58BFF1EEC0
:10D11000C66A00F16181D96E854C01314FF0010C76
:10D12000D96684F800C0C3ED1A6A00E0D96E58676A
:10D130004FF0010CC829C3ED1E7A83F87CC000F2C1
:10D14000AD80002940F0BE807A4993F8BC000968A0
:10D1500092ED027A002800F0B980D3ED2D7AF5EE39
:10D16000C07AF1EE10FA00F10F81DFED6F6AF4EE94
:10D17000E67AF1EE10FACCBF01220022002A00F07C
:10D18000A580D3ED2E6A37EE666AB5EEC06AF1EE81
:10D1900010FA00F1DB80DFED655AB4EEE56AF1EEDE
:10D1A00010FACCBF01220022002A00F08F8093EDFC
:10D1B000231A93ED212AD3ED222AD3ED201AD3EDA1
:10D1C000270AD3ED254A93ED244A67EE813A27EEEC
:10D1D000823AE6EEA23AA6EEA13A67EEA35A27EE0D
:10D1E000A46AE6EE835AA6EE846A75EEA05A37EE7C
:10D1F000466A83EE250A83EEA53AF7EE003AF7EE8B
:10D20000005AE6EEC03AE7EEC35A67EE807AA6EE21
:10D21000004A66EE836A27EEE20AE6EE034AA1EED2
:10D22000A30A26EEC26AD3ED260A83ED244AA1EEB4
:10D23000256A67EEC17A66EEE16A30EE200AE2EE18
:10D24000237AE2EEA56A36EE206AB5EE400AF1EEE8
:10D2500010FAC3ED254A83ED200AC3ED217AC3ED10
:10D26000226A83ED236A00F1A780F1EEC07AB5EE61
:10D27000406AF1EE10FAC3ED297A00F18F80F1EEE9
:10D28000C67AD3F8AC202A4801324FF0010C80F85E
:10D2900000C0C3F8AC20C3ED2A7A19E0DFED267A8E
:10D2A00093ED197AB4EEE77AF1EE10FA0AD593ED20
:10D2B0001A7AB4EEE77AF1EE10FA03D5022183F878
:10D2C000701041E7012183F870103DE7D3F8AC20DE
:10D2D000C3F8B4100120C82A83ED2E7A83F8BC006D
:10D2E00014D9DFED157A93ED297AB4EEE77AF1EEF1
:10D2F00010FA06D593ED2A7AB4EEE77AF1EE10FA39
:10D3000020D4012283F8B02004B010BD002AFBD045
:10D31000F7E700BFA87D002000100020758E0020D8
:10D32000244100204C7D0020CDCCCC3DCDCC4C3DCB
:10D33000FC0F0020DC4300200AD7233CCDCC4CBDA1
:10D34000CDCCCCBD022283F8B020DDE75FED055ADD
:10D35000B4EEE56AF1EE10FA4CBF0122002223E799
:10D360005FED0A5AB4EEE56AF1EE10FA4CBF012106
:10D37000002162E65FED0E6AB4EEE67AF1EE10FA95
:10D380004CBF0121002142E65FED136AF4EEE67A1C
:10D39000F1EE10FA4CBF01220022EFE6B0EE460A91
:10D3A0008DED027A019123F009FD1B4B9DED027A70
:10D3B0000199F0EE407A64E78DED036A8DED027A13
:10D3C000019123F0FBFC144B9DED036A9DED027A65
:10D3D0000199F0EE407A4AE7B0EE460A0290CDEDB0
:10D3E000017A23F0EBFCDDED017A02980B4A0A4B3F
:10D3F000F0EE406A8FE68DED036A0290CDED017A82
:10D4000023F0DCFCDDED017A02989DED036A034A0E
:10D41000014BF0EE406A73E6001000204C7D0020C6
:10D4200010B5204C2378A2B0002B39D01E4B1F49D9
:10D430001A6D0291012103910592596D5A6ED3F82C
:10D44000C0000490CDE90612D3E91A12CDE9081202
:10D45000D3E90412CDE90A12D3E90912CDE90C127D
:10D46000D96AD3F89020CDE90E12D3F89410D3F8EE
:10D47000A420CDE91012D3F8A82012920021D3F8ED
:10D48000AC301393382214A827F05CFD02A9802346
:10D490000091074A502101200DF0C4FD00232370A4
:10D4A00022B010BDFC0F0020001000204944454E62
:10D4B00000000C08154A164B1648D2ED006A93ED91
:10D4C000017AD0ED007A144992ED016A134AE6EE32
:10D4D000877A93ED007AD1ED006A114BE6EE076A88
:10D4E00092ED007A93ED085AD3ED095A0D4B77EE81
:10D4F000877AB6EE007AB0EE476AA5EE266AA5EE08
:10D50000A77A83ED086A83ED097A7047347D00209D
:10D51000F00500200C390020FC800020383000206D
:10D52000D81000205C060020BE4B1B78002B40F07A
:10D530009780BD4ABD48BE49D2ED007A91ED007A90
:10D54000D0ED005ABB4BBC4993ED006A0978BB484B
:10D5500067EE876A67EEA57AE6EE256A0529E6EEAC
:10D56000477AC3ED006A90ED007AC2ED007A00F0D0
:10D57000F180B34B5B7A5B0720D5DFEDB25AB24B3B
:10D58000B7EE006A77EE655A36EE476A93ED005AB9
:10D59000AE4BF4EEC65AF1EE10FAD8BFB0EE656AA3
:10D5A00026EE056A93ED005AF1EE465AF4EEC55A9E
:10D5B000F1EE10FA40F3E380C3ED005AA44B1B7860
:10D5C000152B3BD8DFE813F08C01A9011600A80049
:10D5D000A800A800A800F200F200640164013A006B
:10D5E0003A003A003A003A003A003A003A003A006B
:10D5F000A800A800954B974A974992ED056A93EDCC
:10D60000004AD1ED005A954BB7EE005A26EE046A57
:10D6100075EE654A75EE855AB0EE465AA4EEA75AE5
:10D6200094EEA76AE5EEA76AF1EE455AF1EE467A66
:10D63000C3ED026AC3ED005AC3ED017A884B196845
:10D6400051B1864A0023D2ED007A013377EE877A12
:10D650009942E2EC017AF6D1824B83ED007A704771
:10D66000013B012B00D97047754AD3789807C3F363
:10D67000400140F19080714BD3ED007AD3789B0745
:10D680001ED4694B93ED007AB5EEC07AF1EE10FA34
:10D6900001D5B1EE477A744BD3ED006AE6EE877A96
:10D6A000F5EEC07AF1EE10FA00F172816F4B93ED56
:10D6B000007AF4EEC77AF1EE10FAC8BFF0EE477ABE
:10D6C000F5EEC07AF1EE10FA00F15681B7EE007A6D
:10D6D000F4EEC77AF1EE10FACCBF01210021B7EECB
:10D6E000007A002918BFF0EE477A614A574BD2ED15
:10D6F000006A93ED007A5B4A584BF0EE675AB0EE41
:10D70000676AE6EE875AA6EEC76AC3ED005AC2ED15
:10D71000007A83ED016A70474C4A564B92ED006ADD
:10D7200093ED005A4D4B26EE056AF1EE665A36EE41
:10D73000675A75EEC65A76EEC66A76EE277A82ED9D
:10D74000006AC3ED015AC3ED026A83ED005AC3EDCE
:10D75000037A73E7484B494AD3ED005A92ED006AC9
:10D76000474B37EE066A93ED007A354B5B7A26EE2F
:10D77000256A5B0726EE077A7FF520AFFDE6B4EE5B
:10D78000C65AF1EE10FAD4BFF0EE455AF0EE465A02
:10D79000C3ED005A12E73B4B1B78002B00F0EF80E3
:10D7A000D378DFED397A9A0799D46AE7274A314B63
:10D7B0009FED366AD2ED005A66EE866A93ED006AF6
:10D7C000264B25EE866AB6EE005AB0EE664AF0EEBB
:10D7D000664AF0EE665A97EEC54AD7EE855AE7EEEE
:10D7E000C54AE7EE856AB0EE463AF0EE463AA7EE55
:10D7F000C53AD7EE853A34EE464A34EEC65A75EE4F
:10D80000865A76EE867A82ED006A83ED003A83EDE1
:10D81000014A83ED025AC3ED035AC3ED047AC3ED06
:10D82000053A0BE7758E0020000600204C00002012
:10D83000D010002004060020A87D0020E838002039
:10D84000AC7D0020CDCC4C3DE8000020FC05002044
:10D85000F5000020D8100020C81000205C06002031
:10D8600004000020CC100020D4380020C83800204C
:10D87000F080002008000020A000002000390020D7
:10D88000A40000205CBE0020000000003BCD133F40
:10D89000414A424B92ED006A93ED005A404B26EE0E
:10D8A000056AF1EE665A76EE674A75EEC65A76EE6E
:10D8B000C66A76EE277AB6EE005A65EE855A66EEAF
:10D8C000856A64EE854A67EE857A82ED006AC3ED6B
:10D8D000015AC3ED026AC3ED004AC3ED037AADE617
:10D8E000304B9FED315AD3ED004A2D4BB7EE006A15
:10D8F00074EE865A36EE646A65EEA75A67EEC67A0B
:10D90000F0EE654AE6EEC54AE6EE855AC3ED014AF9
:10D91000C3ED025AC3ED007A90E69FED236A1E4BD9
:10D92000B0EE675AF0EE675AA6EEC65AE6EE865A91
:10D9300093ED006ADFED1D6A194BF0EE673AB0EE29
:10D94000454AF0EE654AD6EE263AA6EE264AE6EEBF
